{
  "contractName": "Finance",
  "abi": [
    {
      "constant": true,
      "inputs": [],
      "name": "hasInitialized",
      "outputs": [
        {
          "name": "",
          "type": "bool"
        }
      ],
      "payable": false,
      "stateMutability": "view",
      "type": "function"
    },
    {
      "constant": true,
      "inputs": [],
      "name": "CREATE_PAYMENTS_ROLE",
      "outputs": [
        {
          "name": "",
          "type": "bytes32"
        }
      ],
      "payable": false,
      "stateMutability": "view",
      "type": "function"
    },
    {
      "constant": true,
      "inputs": [
        {
          "name": "_script",
          "type": "bytes"
        }
      ],
      "name": "getEVMScriptExecutor",
      "outputs": [
        {
          "name": "",
          "type": "address"
        }
      ],
      "payable": false,
      "stateMutability": "view",
      "type": "function"
    },
    {
      "constant": true,
      "inputs": [],
      "name": "getRecoveryVault",
      "outputs": [
        {
          "name": "",
          "type": "address"
        }
      ],
      "payable": false,
      "stateMutability": "view",
      "type": "function"
    },
    {
      "constant": true,
      "inputs": [],
      "name": "CHANGE_PERIOD_ROLE",
      "outputs": [
        {
          "name": "",
          "type": "bytes32"
        }
      ],
      "payable": false,
      "stateMutability": "view",
      "type": "function"
    },
    {
      "constant": true,
      "inputs": [],
      "name": "CHANGE_BUDGETS_ROLE",
      "outputs": [
        {
          "name": "",
          "type": "bytes32"
        }
      ],
      "payable": false,
      "stateMutability": "view",
      "type": "function"
    },
    {
      "constant": true,
      "inputs": [],
      "name": "periodsLength",
      "outputs": [
        {
          "name": "",
          "type": "uint64"
        }
      ],
      "payable": false,
      "stateMutability": "view",
      "type": "function"
    },
    {
      "constant": true,
      "inputs": [],
      "name": "appId",
      "outputs": [
        {
          "name": "",
          "type": "bytes32"
        }
      ],
      "payable": false,
      "stateMutability": "view",
      "type": "function"
    },
    {
      "constant": true,
      "inputs": [],
      "name": "getInitializationBlock",
      "outputs": [
        {
          "name": "",
          "type": "uint256"
        }
      ],
      "payable": false,
      "stateMutability": "view",
      "type": "function"
    },
    {
      "constant": true,
      "inputs": [],
      "name": "EXECUTE_PAYMENTS_ROLE",
      "outputs": [
        {
          "name": "",
          "type": "bytes32"
        }
      ],
      "payable": false,
      "stateMutability": "view",
      "type": "function"
    },
    {
      "constant": false,
      "inputs": [
        {
          "name": "_token",
          "type": "address"
        }
      ],
      "name": "transferToVault",
      "outputs": [],
      "payable": false,
      "stateMutability": "nonpayable",
      "type": "function"
    },
    {
      "constant": true,
      "inputs": [
        {
          "name": "_sender",
          "type": "address"
        },
        {
          "name": "_role",
          "type": "bytes32"
        },
        {
          "name": "_params",
          "type": "uint256[]"
        }
      ],
      "name": "canPerform",
      "outputs": [
        {
          "name": "",
          "type": "bool"
        }
      ],
      "payable": false,
      "stateMutability": "view",
      "type": "function"
    },
    {
      "constant": true,
      "inputs": [],
      "name": "getEVMScriptRegistry",
      "outputs": [
        {
          "name": "",
          "type": "address"
        }
      ],
      "payable": false,
      "stateMutability": "view",
      "type": "function"
    },
    {
      "constant": true,
      "inputs": [],
      "name": "kernel",
      "outputs": [
        {
          "name": "",
          "type": "address"
        }
      ],
      "payable": false,
      "stateMutability": "view",
      "type": "function"
    },
    {
      "constant": true,
      "inputs": [],
      "name": "paymentsNextIndex",
      "outputs": [
        {
          "name": "",
          "type": "uint256"
        }
      ],
      "payable": false,
      "stateMutability": "view",
      "type": "function"
    },
    {
      "constant": true,
      "inputs": [],
      "name": "isPetrified",
      "outputs": [
        {
          "name": "",
          "type": "bool"
        }
      ],
      "payable": false,
      "stateMutability": "view",
      "type": "function"
    },
    {
      "constant": true,
      "inputs": [],
      "name": "MANAGE_PAYMENTS_ROLE",
      "outputs": [
        {
          "name": "",
          "type": "bytes32"
        }
      ],
      "payable": false,
      "stateMutability": "view",
      "type": "function"
    },
    {
      "constant": true,
      "inputs": [],
      "name": "transactionsNextIndex",
      "outputs": [
        {
          "name": "",
          "type": "uint256"
        }
      ],
      "payable": false,
      "stateMutability": "view",
      "type": "function"
    },
    {
      "constant": true,
      "inputs": [],
      "name": "vault",
      "outputs": [
        {
          "name": "",
          "type": "address"
        }
      ],
      "payable": false,
      "stateMutability": "view",
      "type": "function"
    },
    {
      "payable": true,
      "stateMutability": "payable",
      "type": "fallback"
    },
    {
      "anonymous": false,
      "inputs": [
        {
          "indexed": true,
          "name": "periodId",
          "type": "uint64"
        },
        {
          "indexed": false,
          "name": "periodStarts",
          "type": "uint64"
        },
        {
          "indexed": false,
          "name": "periodEnds",
          "type": "uint64"
        }
      ],
      "name": "NewPeriod",
      "type": "event"
    },
    {
      "anonymous": false,
      "inputs": [
        {
          "indexed": true,
          "name": "token",
          "type": "address"
        },
        {
          "indexed": false,
          "name": "amount",
          "type": "uint256"
        },
        {
          "indexed": false,
          "name": "hasBudget",
          "type": "bool"
        }
      ],
      "name": "SetBudget",
      "type": "event"
    },
    {
      "anonymous": false,
      "inputs": [
        {
          "indexed": true,
          "name": "paymentId",
          "type": "uint256"
        },
        {
          "indexed": true,
          "name": "recipient",
          "type": "address"
        },
        {
          "indexed": false,
          "name": "maxRepeats",
          "type": "uint64"
        },
        {
          "indexed": false,
          "name": "reference",
          "type": "string"
        }
      ],
      "name": "NewPayment",
      "type": "event"
    },
    {
      "anonymous": false,
      "inputs": [
        {
          "indexed": true,
          "name": "transactionId",
          "type": "uint256"
        },
        {
          "indexed": false,
          "name": "incoming",
          "type": "bool"
        },
        {
          "indexed": true,
          "name": "entity",
          "type": "address"
        },
        {
          "indexed": false,
          "name": "amount",
          "type": "uint256"
        },
        {
          "indexed": false,
          "name": "reference",
          "type": "string"
        }
      ],
      "name": "NewTransaction",
      "type": "event"
    },
    {
      "anonymous": false,
      "inputs": [
        {
          "indexed": true,
          "name": "paymentId",
          "type": "uint256"
        },
        {
          "indexed": false,
          "name": "inactive",
          "type": "bool"
        }
      ],
      "name": "ChangePaymentState",
      "type": "event"
    },
    {
      "anonymous": false,
      "inputs": [
        {
          "indexed": false,
          "name": "newDuration",
          "type": "uint64"
        }
      ],
      "name": "ChangePeriodDuration",
      "type": "event"
    },
    {
      "anonymous": false,
      "inputs": [
        {
          "indexed": false,
          "name": "paymentId",
          "type": "uint256"
        }
      ],
      "name": "PaymentFailure",
      "type": "event"
    },
    {
      "anonymous": false,
      "inputs": [
        {
          "indexed": true,
          "name": "executor",
          "type": "address"
        },
        {
          "indexed": false,
          "name": "script",
          "type": "bytes"
        },
        {
          "indexed": false,
          "name": "input",
          "type": "bytes"
        },
        {
          "indexed": false,
          "name": "returnData",
          "type": "bytes"
        }
      ],
      "name": "ScriptResult",
      "type": "event"
    },
    {
      "constant": false,
      "inputs": [
        {
          "name": "_vault",
          "type": "address"
        },
        {
          "name": "_periodDuration",
          "type": "uint64"
        }
      ],
      "name": "initialize",
      "outputs": [],
      "payable": false,
      "stateMutability": "nonpayable",
      "type": "function"
    },
    {
      "constant": false,
      "inputs": [
        {
          "name": "_token",
          "type": "address"
        },
        {
          "name": "_amount",
          "type": "uint256"
        },
        {
          "name": "_reference",
          "type": "string"
        }
      ],
      "name": "deposit",
      "outputs": [],
      "payable": true,
      "stateMutability": "payable",
      "type": "function"
    },
    {
      "constant": false,
      "inputs": [
        {
          "name": "_token",
          "type": "address"
        },
        {
          "name": "_receiver",
          "type": "address"
        },
        {
          "name": "_amount",
          "type": "uint256"
        },
        {
          "name": "_initialPaymentTime",
          "type": "uint64"
        },
        {
          "name": "_interval",
          "type": "uint64"
        },
        {
          "name": "_maxRepeats",
          "type": "uint64"
        },
        {
          "name": "_reference",
          "type": "string"
        }
      ],
      "name": "newPayment",
      "outputs": [
        {
          "name": "paymentId",
          "type": "uint256"
        }
      ],
      "payable": false,
      "stateMutability": "nonpayable",
      "type": "function"
    },
    {
      "constant": false,
      "inputs": [
        {
          "name": "_periodDuration",
          "type": "uint64"
        }
      ],
      "name": "setPeriodDuration",
      "outputs": [],
      "payable": false,
      "stateMutability": "nonpayable",
      "type": "function"
    },
    {
      "constant": false,
      "inputs": [
        {
          "name": "_token",
          "type": "address"
        },
        {
          "name": "_amount",
          "type": "uint256"
        }
      ],
      "name": "setBudget",
      "outputs": [],
      "payable": false,
      "stateMutability": "nonpayable",
      "type": "function"
    },
    {
      "constant": false,
      "inputs": [
        {
          "name": "_token",
          "type": "address"
        }
      ],
      "name": "removeBudget",
      "outputs": [],
      "payable": false,
      "stateMutability": "nonpayable",
      "type": "function"
    },
    {
      "constant": false,
      "inputs": [
        {
          "name": "_paymentId",
          "type": "uint256"
        }
      ],
      "name": "executePayment",
      "outputs": [],
      "payable": false,
      "stateMutability": "nonpayable",
      "type": "function"
    },
    {
      "constant": false,
      "inputs": [
        {
          "name": "_paymentId",
          "type": "uint256"
        }
      ],
      "name": "receiverExecutePayment",
      "outputs": [],
      "payable": false,
      "stateMutability": "nonpayable",
      "type": "function"
    },
    {
      "constant": false,
      "inputs": [
        {
          "name": "_paymentId",
          "type": "uint256"
        },
        {
          "name": "_active",
          "type": "bool"
        }
      ],
      "name": "setPaymentStatus",
      "outputs": [],
      "payable": false,
      "stateMutability": "nonpayable",
      "type": "function"
    },
    {
      "constant": false,
      "inputs": [
        {
          "name": "_token",
          "type": "address"
        }
      ],
      "name": "recoverToVault",
      "outputs": [],
      "payable": false,
      "stateMutability": "nonpayable",
      "type": "function"
    },
    {
      "constant": false,
      "inputs": [
        {
          "name": "_maxTransitions",
          "type": "uint64"
        }
      ],
      "name": "tryTransitionAccountingPeriod",
      "outputs": [
        {
          "name": "success",
          "type": "bool"
        }
      ],
      "payable": false,
      "stateMutability": "nonpayable",
      "type": "function"
    },
    {
      "constant": true,
      "inputs": [
        {
          "name": "",
          "type": "address"
        }
      ],
      "name": "allowRecoverability",
      "outputs": [
        {
          "name": "",
          "type": "bool"
        }
      ],
      "payable": false,
      "stateMutability": "view",
      "type": "function"
    },
    {
      "constant": true,
      "inputs": [
        {
          "name": "_paymentId",
          "type": "uint256"
        }
      ],
      "name": "getPayment",
      "outputs": [
        {
          "name": "token",
          "type": "address"
        },
        {
          "name": "receiver",
          "type": "address"
        },
        {
          "name": "amount",
          "type": "uint256"
        },
        {
          "name": "initialPaymentTime",
          "type": "uint64"
        },
        {
          "name": "interval",
          "type": "uint64"
        },
        {
          "name": "maxRepeats",
          "type": "uint64"
        },
        {
          "name": "inactive",
          "type": "bool"
        },
        {
          "name": "repeats",
          "type": "uint64"
        },
        {
          "name": "createdBy",
          "type": "address"
        }
      ],
      "payable": false,
      "stateMutability": "view",
      "type": "function"
    },
    {
      "constant": true,
      "inputs": [
        {
          "name": "_transactionId",
          "type": "uint256"
        }
      ],
      "name": "getTransaction",
      "outputs": [
        {
          "name": "periodId",
          "type": "uint64"
        },
        {
          "name": "amount",
          "type": "uint256"
        },
        {
          "name": "paymentId",
          "type": "uint256"
        },
        {
          "name": "paymentRepeatNumber",
          "type": "uint64"
        },
        {
          "name": "token",
          "type": "address"
        },
        {
          "name": "entity",
          "type": "address"
        },
        {
          "name": "isIncoming",
          "type": "bool"
        },
        {
          "name": "date",
          "type": "uint64"
        }
      ],
      "payable": false,
      "stateMutability": "view",
      "type": "function"
    },
    {
      "constant": true,
      "inputs": [
        {
          "name": "_periodId",
          "type": "uint64"
        }
      ],
      "name": "getPeriod",
      "outputs": [
        {
          "name": "isCurrent",
          "type": "bool"
        },
        {
          "name": "startTime",
          "type": "uint64"
        },
        {
          "name": "endTime",
          "type": "uint64"
        },
        {
          "name": "firstTransactionId",
          "type": "uint256"
        },
        {
          "name": "lastTransactionId",
          "type": "uint256"
        }
      ],
      "payable": false,
      "stateMutability": "view",
      "type": "function"
    },
    {
      "constant": true,
      "inputs": [
        {
          "name": "_periodId",
          "type": "uint64"
        },
        {
          "name": "_token",
          "type": "address"
        }
      ],
      "name": "getPeriodTokenStatement",
      "outputs": [
        {
          "name": "expenses",
          "type": "uint256"
        },
        {
          "name": "income",
          "type": "uint256"
        }
      ],
      "payable": false,
      "stateMutability": "view",
      "type": "function"
    },
    {
      "constant": true,
      "inputs": [
        {
          "name": "_paymentId",
          "type": "uint256"
        }
      ],
      "name": "nextPaymentTime",
      "outputs": [
        {
          "name": "",
          "type": "uint64"
        }
      ],
      "payable": false,
      "stateMutability": "view",
      "type": "function"
    },
    {
      "constant": true,
      "inputs": [],
      "name": "getPeriodDuration",
      "outputs": [
        {
          "name": "",
          "type": "uint64"
        }
      ],
      "payable": false,
      "stateMutability": "view",
      "type": "function"
    },
    {
      "constant": true,
      "inputs": [
        {
          "name": "_token",
          "type": "address"
        }
      ],
      "name": "getBudget",
      "outputs": [
        {
          "name": "budget",
          "type": "uint256"
        },
        {
          "name": "hasBudget",
          "type": "bool"
        }
      ],
      "payable": false,
      "stateMutability": "view",
      "type": "function"
    },
    {
      "constant": true,
      "inputs": [
        {
          "name": "_token",
          "type": "address"
        }
      ],
      "name": "getRemainingBudget",
      "outputs": [
        {
          "name": "",
          "type": "uint256"
        }
      ],
      "payable": false,
      "stateMutability": "view",
      "type": "function"
    },
    {
      "constant": true,
      "inputs": [],
      "name": "currentPeriodId",
      "outputs": [
        {
          "name": "",
          "type": "uint64"
        }
      ],
      "payable": false,
      "stateMutability": "view",
      "type": "function"
    }
  ],
  "bytecode": "0x6080604052620000176401000000006200001d810204565b6200023b565b6200003064010000000062000125810204565b60408051808201909152601881527f494e49545f414c52454144595f494e495449414c495a45440000000000000000602082015290156200010c576040517f08c379a00000000000000000000000000000000000000000000000000000000081526004018080602001828103825283818151815260200191508051906020019080838360005b83811015620000d0578181015183820152602001620000b6565b50505050905090810190601f168015620000fe5780820380516001836020036101000a031916815260200191505b509250505060405180910390fd5b506200012360001964010000000062000154810204565b565b60006200014f600080516020620054c4833981519152640100000000620049c06200023382021704565b905090565b6200016764010000000062000125810204565b60408051808201909152601881527f494e49545f414c52454144595f494e495449414c495a454400000000000000006020820152901562000206576040517f08c379a000000000000000000000000000000000000000000000000000000000815260040180806020018281038252838181518152602001915080519060200190808383600083811015620000d0578181015183820152602001620000b6565b5062000230600080516020620054c483398151915282640100000000620050106200023782021704565b50565b5490565b9055565b615279806200024b6000396000f3006080604052600436106101ed5763ffffffff7c01000000000000000000000000000000000000000000000000000000006000350416630803fac081146103d35780630842ace4146103fc578063162a0cf8146104235780631798de811461043d57806318f053da1461047857806319b7d7bd146104a65780632914b9bd146104ed5780632d00cad31461056f5780633280a8361461058c57806332f0a3b51461061757806333ea3dc81461062c5780635985feec146106ad5780635b14dbc8146106c25780636436f189146106d757806367047c4a146106ef578063671273f41461074b5780636abe602d1461076d5780636f0558b11461079f57806374bfb426146108015780637e7db6e11461083257806380afdea8146108605780638b3dd749146108755780639297d8601461088a578063981cc342146108b8578063988e6595146108cd5780639d4941d8146108e2578063a1658fad14610910578063a479e50814610984578063a662944114610999578063b36fec57146109bb578063bfe07da6146109d0578063cb045a9614610a01578063d2d27b4114610a19578063d4aae0c414610a6d578063de048a7b14610a82578063de4796ed14610a97578063e94ebac514610aac578063eaa7ec6814610ac1578063eca8181714610ad6578063fbfa77cf14610b04575b6101f5610b19565b60408051808201909152601481527f494e49545f4e4f545f494e495449414c495a454400000000000000000000000060208201529015156102ce576040517f08c379a00000000000000000000000000000000000000000000000000000000081526004018080602001828103825283818151815260200191508051906020019080838360005b8381101561029357818101518382015260200161027b565b50505050905090810190601f1680156102c05780820380516001836020036101000a031916815260200191505b509250505060405180910390fd5b5060006102eb6102dc610b42565b67ffffffffffffffff16610b48565b60408051808201909152601b81527f46494e414e43455f434f4d504c4554455f5452414e534954494f4e0000000000602082015290915081151561038b576040517f08c379a00000000000000000000000000000000000000000000000000000000081526004018080602001828103825283818151815260200191508051906020019080838360008381101561029357818101518382015260200161027b565b506103d06000346040805190810160405280601d81526020017f4574686572207472616e7366657220746f2046696e616e636520617070000000815250336001610c32565b50005b3480156103df57600080fd5b506103e8610b19565b604080519115158252519081900360200190f35b34801561040857600080fd5b506104116110dd565b60408051918252519081900360200190f35b34801561042f57600080fd5b5061043b600435611112565b005b34801561044957600080fd5b5061043b73ffffffffffffffffffffffffffffffffffffffff6004351667ffffffffffffffff60243516611438565b34801561048457600080fd5b5061043b73ffffffffffffffffffffffffffffffffffffffff6004351661172d565b3480156104b257600080fd5b506104d473ffffffffffffffffffffffffffffffffffffffff600435166119a0565b6040805192835290151560208301528051918290030190f35b3480156104f957600080fd5b506040805160206004803580820135601f81018490048402850184019095528484526105469436949293602493928401919081908401838280828437509497506119db9650505050505050565b6040805173ffffffffffffffffffffffffffffffffffffffff9092168252519081900360200190f35b34801561057b57600080fd5b5061043b6004356024351515611ae7565b34801561059857600080fd5b506105a4600435611d21565b6040805173ffffffffffffffffffffffffffffffffffffffff9a8b168152988a1660208a01528881019790975267ffffffffffffffff9586166060890152938516608088015291841660a0870152151560c086015290911660e08401529092166101008201529051908190036101200190f35b34801561062357600080fd5b50610546611ea5565b34801561063857600080fd5b50610644600435611f43565b6040805167ffffffffffffffff998a168152602081019890985287810196909652938716606087015273ffffffffffffffffffffffffffffffffffffffff9283166080870152911660a0850152151560c084015290921660e08201529051908190036101000190f35b3480156106b957600080fd5b506104116120a4565b3480156106ce57600080fd5b506104116120d9565b3480156106e357600080fd5b5061043b60043561210e565b3480156106fb57600080fd5b5061071167ffffffffffffffff600435166124ab565b60408051951515865267ffffffffffffffff9485166020870152929093168483015260608401526080830191909152519081900360a00190f35b34801561075757600080fd5b5061043b67ffffffffffffffff600435166125cc565b34801561077957600080fd5b5061078261288b565b6040805167ffffffffffffffff9092168252519081900360200190f35b3480156107ab57600080fd5b5061041173ffffffffffffffffffffffffffffffffffffffff6004803582169160248035909116916044359167ffffffffffffffff60643581169260843582169260a4359092169160c43590810191013561289b565b34801561080d57600080fd5b5061043b73ffffffffffffffffffffffffffffffffffffffff60043516602435612e96565b34801561083e57600080fd5b506103e873ffffffffffffffffffffffffffffffffffffffff60043516613149565b34801561086c57600080fd5b5061041161315a565b34801561088157600080fd5b5061041161318a565b34801561089657600080fd5b5061043b73ffffffffffffffffffffffffffffffffffffffff600435166131b5565b3480156108c457600080fd5b506104116134ae565b3480156108d957600080fd5b506107826134e3565b3480156108ee57600080fd5b5061043b73ffffffffffffffffffffffffffffffffffffffff60043516613593565b34801561091c57600080fd5b5060408051602060046044358181013583810280860185019096528085526103e895833573ffffffffffffffffffffffffffffffffffffffff169560248035963696956064959394920192918291850190849080828437509497506138949650505050505050565b34801561099057600080fd5b50610546613a1a565b3480156109a557600080fd5b506103e867ffffffffffffffff60043516613adc565b3480156109c757600080fd5b50610782613b9d565b61043b6004803573ffffffffffffffffffffffffffffffffffffffff16906024803591604435918201910135613bad565b348015610a0d57600080fd5b50610782600435613d41565b348015610a2557600080fd5b50610a5467ffffffffffffffff6004351673ffffffffffffffffffffffffffffffffffffffff60243516613f51565b6040805192835260208301919091528051918290030190f35b348015610a7957600080fd5b5061054661405c565b348015610a8e57600080fd5b50610411614087565b348015610aa357600080fd5b506103e861408d565b348015610ab857600080fd5b506104116140a0565b348015610acd57600080fd5b506104116140d5565b348015610ae257600080fd5b5061041173ffffffffffffffffffffffffffffffffffffffff600435166140db565b348015610b1057600080fd5b5061054661418c565b600080610b2461318a565b90508015801590610b3c575080610b396141a8565b10155b91505090565b60001990565b600080600060086000610b596141ac565b67ffffffffffffffff1667ffffffffffffffff1681526020019081526020016000209150610b856141c0565b90505b815467ffffffffffffffff6801000000000000000090910481169082161115610c2657831515610bbb5760009250610c2b565b610bcc84600163ffffffff6141d216565b600183015490945015610bf357600754610bed90600163ffffffff6141d216565b60028301555b8154610c1f90610c1a9068010000000000000000900467ffffffffffffffff16600161427d565b614337565b9150610b88565b600192505b5050919050565b60408051808201909152601b81527f46494e414e43455f4445504f5349545f414d4f554e545f5a45524f0000000000602082015260008511610cd0576040517f08c379a00000000000000000000000000000000000000000000000000000000081526004018080602001828103825283818151815260200191508051906020019080838360008381101561029357818101518382015260200161027b565b50610cdd85838686614441565b8015610ee85773ffffffffffffffffffffffffffffffffffffffff851615610e4957604080517f23b872dd00000000000000000000000000000000000000000000000000000000815233600482015230602482015260448101869052905173ffffffffffffffffffffffffffffffffffffffff8716916323b872dd9160648083019260209291908290030181600087803b158015610d7a57600080fd5b505af1158015610d8e573d6000803e3d6000fd5b505050506040513d6020811015610da457600080fd5b50516040805180820190915260208082527f46494e414e43455f544b4e5f5452414e534645525f46524f4d5f52455645525490820152901515610e43576040517f08c379a00000000000000000000000000000000000000000000000000000000081526004018080602001828103825283818151815260200191508051906020019080838360008381101561029357818101518382015260200161027b565b50610ee8565b60408051808201909152601681527f46494e414e43455f56414c55455f4d49534d41544348000000000000000000006020820152348514610ee6576040517f08c379a00000000000000000000000000000000000000000000000000000000081526004018080602001828103825283818151815260200191508051906020019080838360008381101561029357818101518382015260200161027b565b505b73ffffffffffffffffffffffffffffffffffffffff85161515610f9c5760008054604080517f47e7ef240000000000000000000000000000000000000000000000000000000081526004810184905260248101889052905173ffffffffffffffffffffffffffffffffffffffff909216926347e7ef24928892604480820193929182900301818588803b158015610f7e57600080fd5b505af1158015610f92573d6000803e3d6000fd5b50505050506110d6565b60008054604080517f095ea7b300000000000000000000000000000000000000000000000000000000815273ffffffffffffffffffffffffffffffffffffffff92831660048201526024810188905290519188169263095ea7b3926044808401936020939083900390910190829087803b15801561101957600080fd5b505af115801561102d573d6000803e3d6000fd5b505050506040513d602081101561104357600080fd5b505060008054604080517f47e7ef2400000000000000000000000000000000000000000000000000000000815273ffffffffffffffffffffffffffffffffffffffff898116600483015260248201899052915191909216926347e7ef24926044808201939182900301818387803b1580156110bd57600080fd5b505af11580156110d1573d6000803e3d6000fd5b505050505b5050505050565b604080517f4352454154455f5041594d454e54535f524f4c450000000000000000000000008152905190819003601401902081565b604080517f455845435554455f5041594d454e54535f524f4c45000000000000000000000081528151908190036015019020600083815260046020529190912060030154611161908390614458565b61116c338383613894565b60408051808201909152600f81527f4150505f415554485f4641494c454400000000000000000000000000000000006020820152901515611209576040517f08c379a00000000000000000000000000000000000000000000000000000000081526004018080602001828103825283818151815260200191508051906020019080838360008381101561029357818101518382015260200161027b565b508260008111801561121c575060055481105b60408051808201909152601281527f46494e414e43455f4e4f5f5041594d454e54000000000000000000000000000060208201529015156112b9576040517f08c379a00000000000000000000000000000000000000000000000000000000081526004018080602001828103825283818151815260200191508051906020019080838360008381101561029357818101518382015260200161027b565b5060006112c76102dc610b42565b60408051808201909152601b81527f46494e414e43455f434f4d504c4554455f5452414e534954494f4e00000000006020820152909150811515611367576040517f08c379a00000000000000000000000000000000000000000000000000000000081526004018080602001828103825283818151815260200191508051906020019080838360008381101561029357818101518382015260200161027b565b506113706141c0565b67ffffffffffffffff1661138386613d41565b67ffffffffffffffff1611156040805190810160405280601c81526020017f46494e414e43455f455845435554455f5041594d454e545f54494d450000000081525090151561142e576040517f08c379a00000000000000000000000000000000000000000000000000000000081526004018080602001828103825283818151815260200191508051906020019080838360008381101561029357818101518382015260200161027b565b506110d6856144b3565b61144061318a565b60408051808201909152601881527f494e49545f414c52454144595f494e495449414c495a45440000000000000000602082015290156114dc576040517f08c379a00000000000000000000000000000000000000000000000000000000081526004018080602001828103825283818151815260200191508051906020019080838360008381101561029357818101518382015260200161027b565b506114e56146dd565b6114ee826147bc565b60408051808201909152601a81527f46494e414e43455f5641554c545f4e4f545f434f4e5452414354000000000000602082015290151561158b576040517f08c379a00000000000000000000000000000000000000000000000000000000081526004018080602001828103825283818151815260200191508051906020019080838360008381101561029357818101518382015260200161027b565b50600080547fffffffffffffffffffffffff00000000000000000000000000000000000000001673ffffffffffffffffffffffffffffffffffffffff841617905560408051808201909152601d81527f46494e414e43455f494e49545f504552494f445f544f4f5f53484f525400000060208201526201518067ffffffffffffffff83161015611677576040517f08c379a00000000000000000000000000000000000000000000000000000000081526004018080602001828103825283818151815260200191508051906020019080838360008381101561029357818101518382015260200161027b565b506001805467ffffffffffffffff83167fffffffffffffffffffffffffffffffffffffffffffffffff00000000000000009091161781556000805260046020527f17ef568e3e12ab5b9c7254a8d58478811de00f9e6eb34345acd53bf8fd09d3ee80547fffffffffffffffffffffff00ffffffffffffffffffffffffffffffffffffffff16740100000000000000000000000000000000000000001790556005819055600755611728610c1a6141c0565b505050565b604080517f4348414e47455f425544474554535f524f4c45000000000000000000000000008152815190819003601301902073ffffffffffffffffffffffffffffffffffffffff83166000908152600260209081528382205460039091529281205491926117b2928592919060ff166117a75760006117aa565b60015b60ff166147f6565b6117bd338383613894565b60408051808201909152600f81527f4150505f415554485f4641494c45440000000000000000000000000000000000602082015290151561185a576040517f08c379a00000000000000000000000000000000000000000000000000000000081526004018080602001828103825283818151815260200191508051906020019080838360008381101561029357818101518382015260200161027b565b5060006118686102dc610b42565b60408051808201909152601b81527f46494e414e43455f434f4d504c4554455f5452414e534954494f4e00000000006020820152909150811515611908576040517f08c379a00000000000000000000000000000000000000000000000000000000081526004018080602001828103825283818151815260200191508051906020019080838360008381101561029357818101518382015260200161027b565b5073ffffffffffffffffffffffffffffffffffffffff841660008181526002602090815260408083208390556003825280832080547fffffffffffffffffffffffffffffffffffffffffffffffffffffffffffffff0016905580518381529182019290925281517f6e768d8fe4a1460cae6d5af9382c3e9abbc41f66f2ec91fda24b12e3c2796f03929181900390910190a250505050565b73ffffffffffffffffffffffffffffffffffffffff16600090815260026020908152604080832054600390925290912054909160ff90911690565b60006119e5613a1a565b73ffffffffffffffffffffffffffffffffffffffff166304bf2a7f836040518263ffffffff167c01000000000000000000000000000000000000000000000000000000000281526004018080602001828103825283818151815260200191508051906020019080838360005b83811015611a69578181015183820152602001611a51565b50505050905090810190601f168015611a965780820380516001836020036101000a031916815260200191505b5092505050602060405180830381600087803b158015611ab557600080fd5b505af1158015611ac9573d6000803e3d6000fd5b505050506040513d6020811015611adf57600080fd5b505192915050565b604080517f4d414e4147455f5041594d454e54535f524f4c4500000000000000000000000081529051908190036014019020611b348383611b29576000611b2c565b60015b60ff16614458565b611b3f338383613894565b60408051808201909152600f81527f4150505f415554485f4641494c454400000000000000000000000000000000006020820152901515611bdc576040517f08c379a00000000000000000000000000000000000000000000000000000000081526004018080602001828103825283818151815260200191508051906020019080838360008381101561029357818101518382015260200161027b565b5083600081118015611bef575060055481105b60408051808201909152601281527f46494e414e43455f4e4f5f5041594d454e5400000000000000000000000000006020820152901515611c8c576040517f08c379a00000000000000000000000000000000000000000000000000000000081526004018080602001828103825283818151815260200191508051906020019080838360008381101561029357818101518382015260200161027b565b5060008581526004602090815260409182902060020180547fffffffffffffffffffffff00ffffffffffffffffffffffffffffffffffffffff16871574010000000000000000000000000000000000000000810291909117909155825190158152915187927faca91836ee6e44bf1c422f7ee89afb243a4fb775d9fe87150ff5f8e566dc161292908290030190a25050505050565b6000806000806000806000806000808a600081118015611d42575060055481105b60408051808201909152601281527f46494e414e43455f4e4f5f5041594d454e5400000000000000000000000000006020820152901515611ddf576040517f08c379a00000000000000000000000000000000000000000000000000000000081526004018080602001828103825283818151815260200191508051906020019080838360008381101561029357818101518382015260200161027b565b5050506000998a5250506004602081905260409098208054600182015460038301549a83015460029093015473ffffffffffffffffffffffffffffffffffffffff9283169c9183169b9a5067ffffffffffffffff8085169a506801000000000000000085048116995070010000000000000000000000000000000085048116985060ff7401000000000000000000000000000000000000000083041697507801000000000000000000000000000000000000000000000000909404909316945091169150565b6000611eaf61405c565b73ffffffffffffffffffffffffffffffffffffffff166332f0a3b56040518163ffffffff167c0100000000000000000000000000000000000000000000000000000000028152600401602060405180830381600087803b158015611f1257600080fd5b505af1158015611f26573d6000803e3d6000fd5b505050506040513d6020811015611f3c57600080fd5b5051905090565b600080600080600080600080600089600081118015611f63575060075481105b60408051808201909152601681527f46494e414e43455f4e4f5f5452414e53414354494f4e000000000000000000006020820152901515612000576040517f08c379a00000000000000000000000000000000000000000000000000000000081526004018080602001828103825283818151815260200191508051906020019080838360008381101561029357818101518382015260200161027b565b50505060009889525050600660205250506040909420805460018201546004830154600284015460039094015467ffffffffffffffff700100000000000000000000000000000000830481169a959950909750808216965073ffffffffffffffffffffffffffffffffffffffff9384169550928216937401000000000000000000000000000000000000000090920460ff1692680100000000000000009091041690565b604080517f4348414e47455f504552494f445f524f4c4500000000000000000000000000008152905190819003601201902081565b604080517f4348414e47455f425544474554535f524f4c45000000000000000000000000008152905190819003601301902081565b612116610b19565b60408051808201909152601481527f494e49545f4e4f545f494e495449414c495a454400000000000000000000000060208201529015156121b3576040517f08c379a00000000000000000000000000000000000000000000000000000000081526004018080602001828103825283818151815260200191508051906020019080838360008381101561029357818101518382015260200161027b565b50806000811180156121c6575060055481105b60408051808201909152601281527f46494e414e43455f4e4f5f5041594d454e5400000000000000000000000000006020820152901515612263576040517f08c379a00000000000000000000000000000000000000000000000000000000081526004018080602001828103825283818151815260200191508051906020019080838360008381101561029357818101518382015260200161027b565b5060006122716102dc610b42565b60408051808201909152601b81527f46494e414e43455f434f4d504c4554455f5452414e534954494f4e00000000006020820152909150811515612311576040517f08c379a00000000000000000000000000000000000000000000000000000000081526004018080602001828103825283818151815260200191508051906020019080838360008381101561029357818101518382015260200161027b565b5061231a6141c0565b67ffffffffffffffff1661232d84613d41565b67ffffffffffffffff1611156040805190810160405280601e81526020017f46494e414e43455f524356525f455845435f5041594d454e545f54494d4500008152509015156123d8576040517f08c379a00000000000000000000000000000000000000000000000000000000081526004018080602001828103825283818151815260200191508051906020019080838360008381101561029357818101518382015260200161027b565b50600083815260046020908152604091829020600101548251808401909352601883527f46494e414e43455f5041594d454e545f524543454956455200000000000000009183019190915273ffffffffffffffffffffffffffffffffffffffff1633146124a1576040517f08c379a00000000000000000000000000000000000000000000000000000000081526004018080602001828103825283818151815260200191508051906020019080838360008381101561029357818101518382015260200161027b565b50611728836144b3565b60095460408051808201909152601181527f46494e414e43455f4e4f5f504552494f44000000000000000000000000000000602082015260009182918291829182918291889167ffffffffffffffff90811690831610612567576040517f08c379a00000000000000000000000000000000000000000000000000000000081526004018080602001828103825283818151815260200191508051906020019080838360008381101561029357818101518382015260200161027b565b5067ffffffffffffffff88166000818152600860205260409020925061258b6141ac565b8354600185015460029095015467ffffffffffffffff928316939093149b8183169b5068010000000000000000909104909116985092965094509092505050565b604080517f4348414e47455f504552494f445f524f4c450000000000000000000000000000815290519081900360120190206001546126189067ffffffffffffffff8085169116614458565b612623338383613894565b60408051808201909152600f81527f4150505f415554485f4641494c4544000000000000000000000000000000000060208201529015156126c0576040517f08c379a00000000000000000000000000000000000000000000000000000000081526004018080602001828103825283818151815260200191508051906020019080838360008381101561029357818101518382015260200161027b565b5060006126ce6102dc610b42565b60408051808201909152601b81527f46494e414e43455f434f4d504c4554455f5452414e534954494f4e0000000000602082015290915081151561276e576040517f08c379a00000000000000000000000000000000000000000000000000000000081526004018080602001828103825283818151815260200191508051906020019080838360008381101561029357818101518382015260200161027b565b5060408051808201909152601c81527f46494e414e43455f5345545f504552494f445f544f4f5f53484f52540000000060208201526201518067ffffffffffffffff8616101561281a576040517f08c379a00000000000000000000000000000000000000000000000000000000081526004018080602001828103825283818151815260200191508051906020019080838360008381101561029357818101518382015260200161027b565b506001805467ffffffffffffffff86167fffffffffffffffffffffffffffffffffffffffffffffffff0000000000000000909116811790915560408051918252517fa32389dd0d5a3bf7cc635f8c30fee3b70d06a6c547d6dbf31628378ee267bfc99181900360200190a150505050565b60095467ffffffffffffffff1681565b60008060405180807f4352454154455f5041594d454e54535f524f4c45000000000000000000000000815250601401905060405180910390206128f58b8b8b8a67ffffffffffffffff168a67ffffffffffffffff16614823565b612900338383613894565b60408051808201909152600f81527f4150505f415554485f4641494c45440000000000000000000000000000000000602082015290151561299d576040517f08c379a00000000000000000000000000000000000000000000000000000000081526004018080602001828103825283818151815260200191508051906020019080838360008381101561029357818101518382015260200161027b565b5060006129ab6102dc610b42565b60408051808201909152601b81527f46494e414e43455f434f4d504c4554455f5452414e534954494f4e00000000006020820152909150811515612a4b576040517f08c379a00000000000000000000000000000000000000000000000000000000081526004018080602001828103825283818151815260200191508051906020019080838360008381101561029357818101518382015260200161027b565b5060408051808201909152601f81527f46494e414e43455f4e45575f5041594d454e545f414d4f554e545f5a45524f00602082015260008c11612aea576040517f08c379a00000000000000000000000000000000000000000000000000000000081526004018080602001828103825283818151815260200191508051906020019080838360008381101561029357818101518382015260200161027b565b50612af36141c0565b67ffffffffffffffff168a67ffffffffffffffff1611158015612b2057508767ffffffffffffffff166001145b15612b6957612b648d8d8d6000808c8c8080601f01602080910402602001604051908101604052809392919081815260200183838082843750614868945050505050565b612e86565b73ffffffffffffffffffffffffffffffffffffffff8d166000908152600260205260409020548b111580612bc3575073ffffffffffffffffffffffffffffffffffffffff8d1660009081526003602052604090205460ff16155b60408051808201909152600e81527f46494e414e43455f4255444745540000000000000000000000000000000000006020820152901515612c60576040517f08c379a00000000000000000000000000000000000000000000000000000000081526004018080602001828103825283818151815260200191508051906020019080838360008381101561029357818101518382015260200161027b565b5060058054600181019091556040805167ffffffffffffffff8b1681526020810182815291810189905291965073ffffffffffffffffffffffffffffffffffffffff8e169187917f41e8c14bdf2b044354d788d944b364e1de0b64aeddeba755b8ef69ab68bd9083918c918c918c91606082018484808284376040519201829003965090945050505050a36004600086815260200190815260200160002093508c8460000160006101000a81548173ffffffffffffffffffffffffffffffffffffffff021916908373ffffffffffffffffffffffffffffffffffffffff1602179055508b8460010160006101000a81548173ffffffffffffffffffffffffffffffffffffffff021916908373ffffffffffffffffffffffffffffffffffffffff1602179055508a8460030181905550898460040160006101000a81548167ffffffffffffffff021916908367ffffffffffffffff160217905550888460040160086101000a81548167ffffffffffffffff021916908367ffffffffffffffff160217905550878460040160106101000a81548167ffffffffffffffff021916908367ffffffffffffffff160217905550338460020160006101000a81548173ffffffffffffffffffffffffffffffffffffffff021916908373ffffffffffffffffffffffffffffffffffffffff160217905550612e5b6141c0565b67ffffffffffffffff16612e6e86613d41565b67ffffffffffffffff1611612e8657612e86856144b3565b5050505098975050505050505050565b604080517f4348414e47455f425544474554535f524f4c45000000000000000000000000008152815190819003601301902073ffffffffffffffffffffffffffffffffffffffff8416600090815260026020908152838220546003909152929020549091612f10918591859160ff166117a75760006117aa565b612f1b338383613894565b60408051808201909152600f81527f4150505f415554485f4641494c454400000000000000000000000000000000006020820152901515612fb8576040517f08c379a00000000000000000000000000000000000000000000000000000000081526004018080602001828103825283818151815260200191508051906020019080838360008381101561029357818101518382015260200161027b565b506000612fc66102dc610b42565b60408051808201909152601b81527f46494e414e43455f434f4d504c4554455f5452414e534954494f4e00000000006020820152909150811515613066576040517f08c379a00000000000000000000000000000000000000000000000000000000081526004018080602001828103825283818151815260200191508051906020019080838360008381101561029357818101518382015260200161027b565b5073ffffffffffffffffffffffffffffffffffffffff85166000908152600260209081526040808320879055600390915290205460ff1615156130f25773ffffffffffffffffffffffffffffffffffffffff8516600090815260036020526040902080547fffffffffffffffffffffffffffffffffffffffffffffffffffffffffffffff001660011790555b6040805185815260016020820152815173ffffffffffffffffffffffffffffffffffffffff8816927f6e768d8fe4a1460cae6d5af9382c3e9abbc41f66f2ec91fda24b12e3c2796f03928290030190a25050505050565b6000613153610b19565b1592915050565b60006131857fd625496217aa6a3453eecb9c3489dc5a53e6c67b444329ea2b2cbc9ff547639b6149c0565b905090565b60006131857febb05b386a8d34882b8711d156f463690983dc47815980fb82aeeff1aa43579e6149c0565b60006131bf610b19565b60408051808201909152601481527f494e49545f4e4f545f494e495449414c495a4544000000000000000000000000602082015290151561325c576040517f08c379a00000000000000000000000000000000000000000000000000000000081526004018080602001828103825283818151815260200191508051906020019080838360008381101561029357818101518382015260200161027b565b50600061326a6102dc610b42565b60408051808201909152601b81527f46494e414e43455f434f4d504c4554455f5452414e534954494f4e0000000000602082015290915081151561330a576040517f08c379a00000000000000000000000000000000000000000000000000000000081526004018080602001828103825283818151815260200191508051906020019080838360008381101561029357818101518382015260200161027b565b5073ffffffffffffffffffffffffffffffffffffffff8316156133c657604080517f70a08231000000000000000000000000000000000000000000000000000000008152306004820152905173ffffffffffffffffffffffffffffffffffffffff8516916370a082319160248083019260209291908290030181600087803b15801561339557600080fd5b505af11580156133a9573d6000803e3d6000fd5b505050506040513d60208110156133bf57600080fd5b50516133c9565b30315b60408051808201909152601b81527f46494e414e43455f5245434f5645525f414d4f554e545f5a45524f000000000060208201529092506000831161346a576040517f08c379a00000000000000000000000000000000000000000000000000000000081526004018080602001828103825283818151815260200191508051906020019080838360008381101561029357818101518382015260200161027b565b5061172883836040805190810160405280601081526020017f5265636f76657220746f205661756c7400000000000000000000000000000000815250306000610c32565b604080517f455845435554455f5041594d454e54535f524f4c4500000000000000000000008152905190819003601501902081565b60006134ed610b19565b60408051808201909152601481527f494e49545f4e4f545f494e495449414c495a4544000000000000000000000000602082015290151561358a576040517f08c379a00000000000000000000000000000000000000000000000000000000081526004018080602001828103825283818151815260200191508051906020019080838360008381101561029357818101518382015260200161027b565b506131856141ac565b60008061359f83613149565b60408051808201909152601281527f5245434f5645525f444953414c4c4f5745440000000000000000000000000000602082015290151561363c576040517f08c379a00000000000000000000000000000000000000000000000000000000081526004018080602001828103825283818151815260200191508051906020019080838360008381101561029357818101518382015260200161027b565b50613645611ea5565b9150613650826147bc565b60408051808201909152601a81527f5245434f5645525f5641554c545f4e4f545f434f4e545241435400000000000060208201529015156136ed576040517f08c379a00000000000000000000000000000000000000000000000000000000081526004018080602001828103825283818151815260200191508051906020019080838360008381101561029357818101518382015260200161027b565b5073ffffffffffffffffffffffffffffffffffffffff831615156137545760405173ffffffffffffffffffffffffffffffffffffffff831690303180156108fc02916000818181858888f1935050505015801561374e573d6000803e3d6000fd5b50611728565b604080517f70a08231000000000000000000000000000000000000000000000000000000008152306004820152905173ffffffffffffffffffffffffffffffffffffffff8516916370a082319160248083019260209291908290030181600087803b1580156137c257600080fd5b505af11580156137d6573d6000803e3d6000fd5b505050506040513d60208110156137ec57600080fd5b5051604080517fa9059cbb00000000000000000000000000000000000000000000000000000000815273ffffffffffffffffffffffffffffffffffffffff85811660048301526024820184905291519293509085169163a9059cbb916044808201926020929091908290030181600087803b15801561386a57600080fd5b505af115801561387e573d6000803e3d6000fd5b505050506040513d60208110156110d657600080fd5b600080606060006138a3610b19565b15156138b25760009350613a10565b6138ba61405c565b925073ffffffffffffffffffffffffffffffffffffffff831615156138e25760009350613a10565b5050825160209081028085526040517ffdef910600000000000000000000000000000000000000000000000000000000815273ffffffffffffffffffffffffffffffffffffffff888116600483019081523060248401819052604484018a90526080606485019081528951608486015289518a979489169563fdef9106958e958e948b949193909260a4909101919085019080838360005b8381101561399257818101518382015260200161397a565b50505050905090810190601f1680156139bf5780820380516001836020036101000a031916815260200191505b5095505050505050602060405180830381600087803b1580156139e157600080fd5b505af11580156139f5573d6000803e3d6000fd5b505050506040513d6020811015613a0b57600080fd5b505193505b5050509392505050565b600080613a2561405c565b604080517fbe00bbd80000000000000000000000000000000000000000000000000000000081527fd6f028ca0e8edb4a8c9757ca4fdccab25fa1e0317da1188108f7d2dee14902fb60048201527fddbcfd564f642ab5627cf68b9b7d374fb4f8a36e941a75d89c87998cef03bd616024820152905173ffffffffffffffffffffffffffffffffffffffff929092169163be00bbd8916044808201926020929091908290030181600087803b158015611ab557600080fd5b6000613ae6610b19565b60408051808201909152601481527f494e49545f4e4f545f494e495449414c495a45440000000000000000000000006020820152901515613b83576040517f08c379a00000000000000000000000000000000000000000000000000000000081526004018080602001828103825283818151815260200191508051906020019080838360008381101561029357818101518382015260200161027b565b50613b978267ffffffffffffffff16610b48565b92915050565b60015467ffffffffffffffff1690565b613bb5610b19565b60408051808201909152601481527f494e49545f4e4f545f494e495449414c495a45440000000000000000000000006020820152901515613c52576040517f08c379a00000000000000000000000000000000000000000000000000000000081526004018080602001828103825283818151815260200191508051906020019080838360008381101561029357818101518382015260200161027b565b506000613c606102dc610b42565b60408051808201909152601b81527f46494e414e43455f434f4d504c4554455f5452414e534954494f4e00000000006020820152909150811515613d00576040517f08c379a00000000000000000000000000000000000000000000000000000000081526004018080602001828103825283818151815260200191508051906020019080838360008381101561029357818101518382015260200161027b565b506110d6858585858080601f016020809104026020016040519081016040528093929190818152602001838380828437820191505050505050336001610c32565b6000613d4b615201565b60008084600081118015613d60575060055481105b60408051808201909152601281527f46494e414e43455f4e4f5f5041594d454e5400000000000000000000000000006020820152901515613dfd576040517f08c379a00000000000000000000000000000000000000000000000000000000081526004018080602001828103825283818151815260200191508051906020019080838360008381101561029357818101518382015260200161027b565b50600086815260046020818152604092839020835161012081018552815473ffffffffffffffffffffffffffffffffffffffff908116825260018301548116938201939093526002820154928316948101949094527401000000000000000000000000000000000000000090910460ff161515606084015260038101546080840152015467ffffffffffffffff80821660a0840152680100000000000000008204811660c08401527001000000000000000000000000000000008204811660e08401819052780100000000000000000000000000000000000000000000000090920416610100830181905291955011613efa576000199450613f48565b613f208460c0015185610100015167ffffffffffffffff166149c890919063ffffffff16565b60a0850151909350613f429067ffffffffffffffff168463ffffffff61427d16565b91508194505b50505050919050565b60095460408051808201909152601181527f46494e414e43455f4e4f5f504552494f4400000000000000000000000000000060208201526000918291829186919067ffffffffffffffff90811690831610614008576040517f08c379a00000000000000000000000000000000000000000000000000000000081526004018080602001828103825283818151815260200191508051906020019080838360008381101561029357818101518382015260200161027b565b5050505067ffffffffffffffff92909216600090815260086020908152604080832073ffffffffffffffffffffffffffffffffffffffff949094168352600390930190522080546001909101549092909150565b60006131857f4172f0f7d2289153072b0a6ca36959e0cbe2efc3afe50fc81636caa96338137b6149c0565b60055481565b600060001961409a61318a565b14905090565b604080517f4d414e4147455f5041594d454e54535f524f4c450000000000000000000000008152905190819003601401902081565b60075481565b60006140e5610b19565b60408051808201909152601481527f494e49545f4e4f545f494e495449414c495a45440000000000000000000000006020820152901515614182576040517f08c379a00000000000000000000000000000000000000000000000000000000081526004018080602001828103825283818151815260200191508051906020019080838360008381101561029357818101518382015260200161027b565b50613b9782614a82565b60005473ffffffffffffffffffffffffffffffffffffffff1681565b4390565b60095467ffffffffffffffff166000190190565b60006131856141cd614b60565b614b64565b60408051808201909152601281527f4d4154485f5355425f554e444552464c4f5700000000000000000000000000006020820152600090819084841115614275576040517f08c379a00000000000000000000000000000000000000000000000000000000081526004018080602001828103825283818151815260200191508051906020019080838360008381101561029357818101518382015260200161027b565b505050900390565b60408051808201909152601381527f4d41544836345f4144445f4f564552464c4f570000000000000000000000000060208201526000908383019067ffffffffffffffff808616908316101561432f576040517f08c379a00000000000000000000000000000000000000000000000000000000081526004018080602001828103825283818151815260200191508051906020019080838360008381101561029357818101518382015260200161027b565b509392505050565b6009805467ffffffffffffffff808216600181810183167fffffffffffffffffffffffffffffffffffffffffffffffff0000000000000000948516179094556000818152600860205260408120805487851695168517815594549094919391926000199181168701919091019190821610156143b257506000195b81547fffffffffffffffffffffffffffffffff0000000000000000ffffffffffffffff166801000000000000000067ffffffffffffffff83811682029290921780855560408051828516815292909104831660208301528051928616927fe183df4530c4b573af76d47f020d4b86e418cef40ed4c9ce924b563e791b832c9281900390910190a2509392505050565b614452600185858560008087614c14565b50505050565b60408051600280825260608083018452926020830190803883390190505090508281600081518110151561448857fe5b6020908102909101015280518290829060019081106144a357fe5b6020908102909101015292915050565b600081815260046020908152604080832060028101548251808401909352601883527f46494e414e43455f5041594d454e545f494e414354495645000000000000000093830193909352929174010000000000000000000000000000000000000000900460ff1615614581576040517f08c379a00000000000000000000000000000000000000000000000000000000081526004018080602001828103825283818151815260200191508051906020019080838360008381101561029357818101518382015260200161027b565b50600090505b61458f6141c0565b67ffffffffffffffff166145a284613d41565b67ffffffffffffffff16111580156145c4575060148167ffffffffffffffff16105b1561172857815460038301546145f09173ffffffffffffffffffffffffffffffffffffffff1690614f4c565b151561462e576040805184815290517f5f352e4123f4620cacbb8eb0dd683705aaa3e1f9384adbbd85b665b205097f519181900360200190a1611728565b60048201805467ffffffffffffffff7801000000000000000000000000000000000000000000000000808304821660019081018316820277ffffffffffffffffffffffffffffffffffffffffffffffff9094169390931793849055855486840154600388015460408051602081019091526000815297909501966146d89673ffffffffffffffffffffffffffffffffffffffff93841696929093169491938a930490911690614868565b614587565b6146e561318a565b60408051808201909152601881527f494e49545f414c52454144595f494e495449414c495a4544000000000000000060208201529015614781576040517f08c379a00000000000000000000000000000000000000000000000000000000081526004018080602001828103825283818151815260200191508051906020019080838360008381101561029357818101518382015260200161027b565b506147ba61478d6141a8565b7febb05b386a8d34882b8711d156f463690983dc47815980fb82aeeff1aa43579e9063ffffffff61501016565b565b60008073ffffffffffffffffffffffffffffffffffffffff831615156147e557600091506147f0565b823b90506000811191505b50919050565b606061481a8573ffffffffffffffffffffffffffffffffffffffff16858585615014565b95945050505050565b606061485e8673ffffffffffffffffffffffffffffffffffffffff168673ffffffffffffffffffffffffffffffffffffffff168686866150aa565b9695505050505050565b8361487287614a82565b60408051808201909152601881527f46494e414e43455f52454d41494e494e475f4255444745540000000000000000602082015291111561490f576040517f08c379a00000000000000000000000000000000000000000000000000000000081526004018080602001828103825283818151815260200191508051906020019080838360008381101561029357818101518382015260200161027b565b506149206000878787878787614c14565b60008054604080517fbeabacc800000000000000000000000000000000000000000000000000000000815273ffffffffffffffffffffffffffffffffffffffff8a811660048301528981166024830152604482018990529151919092169263beabacc8926064808201939182900301818387803b1580156149a057600080fd5b505af11580156149b4573d6000803e3d6000fd5b50505050505050505050565b5490565b5490565b60408051808201909152601381527f4d41544836345f4d554c5f4f564552464c4f5700000000000000000000000000602082015260009067ffffffffffffffff848116908416029068010000000000000000821061432f576040517f08c379a00000000000000000000000000000000000000000000000000000000081526004018080602001828103825283818151815260200191508051906020019080838360008381101561029357818101518382015260200161027b565b73ffffffffffffffffffffffffffffffffffffffff8116600090815260036020526040812054819060ff161515614abd5760001991506147f0565b60086000614ac96141ac565b67ffffffffffffffff1681526020808201929092526040908101600090812073ffffffffffffffffffffffffffffffffffffffff87168252600301835281812054600290935220549091508110614b2357600091506147f0565b73ffffffffffffffffffffffffffffffffffffffff8316600090815260026020526040902054614b59908263ffffffff6141d216565b9392505050565b4290565b60408051808201909152601581527f55494e5436345f4e554d4245525f544f4f5f4249470000000000000000000000602082015260009067ffffffffffffffff831115614c0d576040517f08c379a00000000000000000000000000000000000000000000000000000000081526004018080602001828103825283818151815260200191508051906020019080838360008381101561029357818101518382015260200161027b565b5090919050565b6000806000806000614c246141ac565b9450600860008667ffffffffffffffff1667ffffffffffffffff16815260200190815260200160002060030160008c73ffffffffffffffffffffffffffffffffffffffff1673ffffffffffffffffffffffffffffffffffffffff16815260200190815260200160002093508b15614cb4576001840154614caa908a63ffffffff61515c16565b6001850155614cc9565b8354614cc6908a63ffffffff61515c16565b84555b600760008154809291906001019190505592506006600084815260200190815260200160002091508a8260000160006101000a81548173ffffffffffffffffffffffffffffffffffffffff021916908373ffffffffffffffffffffffffffffffffffffffff160217905550898260010160006101000a81548173ffffffffffffffffffffffffffffffffffffffff021916908373ffffffffffffffffffffffffffffffffffffffff1602179055508b8260010160146101000a81548160ff021916908315150217905550888260020181905550878260030181905550868260040160006101000a81548167ffffffffffffffff021916908367ffffffffffffffff160217905550614dd86141c0565b6004830180547fffffffffffffffffffffffffffffffff0000000000000000ffffffffffffffff166801000000000000000067ffffffffffffffff93841602177fffffffffffffffff0000000000000000ffffffffffffffffffffffffffffffff16700100000000000000000000000000000000928816928302179055600090815260086020526040902060018101549091501515614e7957600181018390555b8973ffffffffffffffffffffffffffffffffffffffff16837f5b2c6f4cb53711ae51d600df17fa68f8239b4a704f766c99642f667d1d7bd40e8e8c8a604051808415151515815260200183815260200180602001828103825283818151815260200191508051906020019080838360005b83811015614f02578181015183820152602001614eea565b50505050905090810190601f168015614f2f5780820380516001836020036101000a031916815260200191505b5094505050505060405180910390a3505050505050505050505050565b600081614f5884614a82565b10158015614b59575060008054604080517fe3d670d700000000000000000000000000000000000000000000000000000000815273ffffffffffffffffffffffffffffffffffffffff878116600483015291518694929093169263e3d670d792602480840193602093929083900390910190829087803b158015614fdb57600080fd5b505af1158015614fef573d6000803e3d6000fd5b505050506040513d602081101561500557600080fd5b505110159392505050565b9055565b60408051600480825260a08201909252606091602082016080803883390190505090508481600081518110151561504757fe5b60209081029091010152805184908290600190811061506257fe5b60209081029091010152805183908290600290811061507d57fe5b60209081029091010152805182908290600390811061509857fe5b60209081029091010152949350505050565b60408051600580825260c082019092526060916020820160a080388339019050509050858160008151811015156150dd57fe5b6020908102909101015280518590829060019081106150f857fe5b60209081029091010152805184908290600290811061511357fe5b60209081029091010152805183908290600390811061512e57fe5b60209081029091010152805182908290600490811061514957fe5b6020908102909101015295945050505050565b60408051808201909152601181527f4d4154485f4144445f4f564552464c4f570000000000000000000000000000006020820152600090838301908482101561432f576040517f08c379a00000000000000000000000000000000000000000000000000000000081526004018080602001828103825283818151815260200191508051906020019080838360008381101561029357818101518382015260200161027b565b6040805161012081018252600080825260208201819052918101829052606081018290526080810182905260a0810182905260c0810182905260e08101829052610100810191909152905600a165627a7a72305820df59dc6d8cf73a73a17aa396785709627f9e0bbe1130354bd1eff842ab7a6e950029ebb05b386a8d34882b8711d156f463690983dc47815980fb82aeeff1aa43579e",
  "source": "/*\n * SPDX-License-Identitifer:    GPL-3.0-or-later\n */\n\npragma solidity 0.4.24;\n\nimport \"@aragon/os/contracts/apps/AragonApp.sol\";\nimport \"@aragon/os/contracts/common/EtherTokenConstant.sol\";\nimport \"@aragon/os/contracts/common/IsContract.sol\";\n\nimport \"@aragon/os/contracts/lib/token/ERC20.sol\";\nimport \"@aragon/os/contracts/lib/math/SafeMath.sol\";\nimport \"@aragon/os/contracts/lib/math/SafeMath64.sol\";\n\nimport \"@aragon/apps-vault/contracts/Vault.sol\";\n\n\ncontract Finance is EtherTokenConstant, IsContract, AragonApp {\n    using SafeMath for uint256;\n    using SafeMath64 for uint64;\n\n    bytes32 public constant CREATE_PAYMENTS_ROLE = keccak256(\"CREATE_PAYMENTS_ROLE\");\n    bytes32 public constant CHANGE_PERIOD_ROLE = keccak256(\"CHANGE_PERIOD_ROLE\");\n    bytes32 public constant CHANGE_BUDGETS_ROLE = keccak256(\"CHANGE_BUDGETS_ROLE\");\n    bytes32 public constant EXECUTE_PAYMENTS_ROLE = keccak256(\"EXECUTE_PAYMENTS_ROLE\");\n    bytes32 public constant MANAGE_PAYMENTS_ROLE = keccak256(\"MANAGE_PAYMENTS_ROLE\");\n\n    uint256 internal constant NO_PAYMENT = 0;\n    uint256 internal constant NO_TRANSACTION = 0;\n    uint256 internal constant MAX_PAYMENTS_PER_TX = 20;\n    uint256 internal constant MAX_UINT = uint256(-1);\n    uint64 internal constant MAX_UINT64 = uint64(-1);\n\n    string private constant ERROR_COMPLETE_TRANSITION = \"FINANCE_COMPLETE_TRANSITION\";\n    string private constant ERROR_NO_PAYMENT = \"FINANCE_NO_PAYMENT\";\n    string private constant ERROR_NO_TRANSACTION = \"FINANCE_NO_TRANSACTION\";\n    string private constant ERROR_NO_PERIOD = \"FINANCE_NO_PERIOD\";\n    string private constant ERROR_VAULT_NOT_CONTRACT = \"FINANCE_VAULT_NOT_CONTRACT\";\n    string private constant ERROR_INIT_PERIOD_TOO_SHORT = \"FINANCE_INIT_PERIOD_TOO_SHORT\";\n    string private constant ERROR_SET_PERIOD_TOO_SHORT = \"FINANCE_SET_PERIOD_TOO_SHORT\";\n    string private constant ERROR_NEW_PAYMENT_AMOUNT_ZERO = \"FINANCE_NEW_PAYMENT_AMOUNT_ZERO\";\n    string private constant ERROR_RECOVER_AMOUNT_ZERO = \"FINANCE_RECOVER_AMOUNT_ZERO\";\n    string private constant ERROR_DEPOSIT_AMOUNT_ZERO = \"FINANCE_DEPOSIT_AMOUNT_ZERO\";\n    string private constant ERROR_BUDGET = \"FINANCE_BUDGET\";\n    string private constant ERROR_EXECUTE_PAYMENT_TIME = \"FINANCE_EXECUTE_PAYMENT_TIME\";\n    string private constant ERROR_RECEIVER_EXECUTE_PAYMENT_TIME = \"FINANCE_RCVR_EXEC_PAYMENT_TIME\";\n    string private constant ERROR_PAYMENT_RECEIVER = \"FINANCE_PAYMENT_RECEIVER\";\n    string private constant ERROR_TOKEN_TRANSFER_FROM_REVERTED = \"FINANCE_TKN_TRANSFER_FROM_REVERT\";\n    string private constant ERROR_VALUE_MISMATCH = \"FINANCE_VALUE_MISMATCH\";\n    string private constant ERROR_PAYMENT_INACTIVE = \"FINANCE_PAYMENT_INACTIVE\";\n    string private constant ERROR_REMAINING_BUDGET = \"FINANCE_REMAINING_BUDGET\";\n\n    // Order optimized for storage\n    struct Payment {\n        address token;\n        address receiver;\n        address createdBy;\n        bool inactive;\n        uint256 amount;\n        uint64 initialPaymentTime;\n        uint64 interval;\n        uint64 maxRepeats;\n        uint64 repeats;\n    }\n\n    // Order optimized for storage\n    struct Transaction {\n        address token;\n        address entity;\n        bool isIncoming;\n        uint256 amount;\n        uint256 paymentId;\n        uint64 paymentRepeatNumber;\n        uint64 date;\n        uint64 periodId;\n    }\n\n    struct TokenStatement {\n        uint256 expenses;\n        uint256 income;\n    }\n\n    struct Period {\n        uint64 startTime;\n        uint64 endTime;\n        uint256 firstTransactionId;\n        uint256 lastTransactionId;\n\n        mapping (address => TokenStatement) tokenStatement;\n    }\n\n    struct Settings {\n        uint64 periodDuration;\n        mapping (address => uint256) budgets;\n        mapping (address => bool) hasBudget;\n    }\n\n    Vault public vault;\n    Settings internal settings;\n\n    // We are mimicing arrays, we use mappings instead to make app upgrade more graceful\n    mapping (uint256 => Payment) internal payments;\n    // Payments start at index 1, to allow us to use payments[0] for transactions that are not\n    // linked to a recurring payment\n    uint256 public paymentsNextIndex;\n\n    mapping (uint256 => Transaction) internal transactions;\n    uint256 public transactionsNextIndex;\n\n    mapping (uint64 => Period) internal periods;\n    uint64 public periodsLength;\n\n    event NewPeriod(uint64 indexed periodId, uint64 periodStarts, uint64 periodEnds);\n    event SetBudget(address indexed token, uint256 amount, bool hasBudget);\n    event NewPayment(uint256 indexed paymentId, address indexed recipient, uint64 maxRepeats, string reference);\n    event NewTransaction(uint256 indexed transactionId, bool incoming, address indexed entity, uint256 amount, string reference);\n    event ChangePaymentState(uint256 indexed paymentId, bool inactive);\n    event ChangePeriodDuration(uint64 newDuration);\n    event PaymentFailure(uint256 paymentId);\n\n    // Modifier used by all methods that impact accounting to make sure accounting period\n    // is changed before the operation if needed\n    // NOTE: its use **MUST** be accompanied by an initialization check\n    modifier transitionsPeriod {\n        bool completeTransition = _tryTransitionAccountingPeriod(getMaxPeriodTransitions());\n        require(completeTransition, ERROR_COMPLETE_TRANSITION);\n        _;\n    }\n\n    modifier paymentExists(uint256 _paymentId) {\n        require(_paymentId > 0 && _paymentId < paymentsNextIndex, ERROR_NO_PAYMENT);\n        _;\n    }\n\n    modifier transactionExists(uint256 _transactionId) {\n        require(_transactionId > 0 && _transactionId < transactionsNextIndex, ERROR_NO_TRANSACTION);\n        _;\n    }\n\n    modifier periodExists(uint64 _periodId) {\n        require(_periodId < periodsLength, ERROR_NO_PERIOD);\n        _;\n    }\n\n    /**\n     * @dev Sends ETH to Vault. Sends all the available balance.\n     * @notice Deposit ETH to the Vault, to avoid locking them in this Finance app forever\n     */\n    function () external payable isInitialized transitionsPeriod {\n        _deposit(\n            ETH,\n            msg.value,\n            \"Ether transfer to Finance app\",\n            msg.sender,\n            true\n        );\n    }\n\n    /**\n    * @notice Initialize Finance app for Vault at `_vault` with period length of `@transformTime(_periodDuration)`\n    * @param _vault Address of the vault Finance will rely on (non changeable)\n    * @param _periodDuration Duration in seconds of each period\n    */\n    function initialize(Vault _vault, uint64 _periodDuration) external onlyInit {\n        initialized();\n\n        require(isContract(_vault), ERROR_VAULT_NOT_CONTRACT);\n        vault = _vault;\n\n        require(_periodDuration >= 1 days, ERROR_INIT_PERIOD_TOO_SHORT);\n        settings.periodDuration = _periodDuration;\n\n        // Reserve the first recurring payment index as an unused index for transactions not linked to a payment\n        payments[0].inactive = true;\n        paymentsNextIndex = 1;\n\n        // Reserve the first transaction index as an unused index for periods with no transactions\n        transactionsNextIndex = 1;\n\n        // Start the first period\n        _newPeriod(getTimestamp64());\n    }\n\n    /**\n    * @dev Deposit for approved ERC20 tokens or ETH\n    * @notice Deposit `@tokenAmount(_token, _amount)`\n    * @param _token Address of deposited token\n    * @param _amount Amount of tokens sent\n    * @param _reference Reason for payment\n    */\n    function deposit(address _token, uint256 _amount, string _reference) external payable isInitialized transitionsPeriod {\n        _deposit(\n            _token,\n            _amount,\n            _reference,\n            msg.sender,\n            true\n        );\n    }\n\n    /**\n    * @notice Create a new payment of `@tokenAmount(_token, _amount)` to `_receiver``_maxRepeats > 0 ? ', executing ' + _maxRepeats + ' times at intervals of ' + @transformTime(_interval) : ''`\n    * @param _token Address of token for payment\n    * @param _receiver Address that will receive payment\n    * @param _amount Tokens that are payed every time the payment is due\n    * @param _initialPaymentTime Timestamp for when the first payment is done\n    * @param _interval Number of seconds that need to pass between payment transactions\n    * @param _maxRepeats Maximum instances a payment can be executed\n    * @param _reference String detailing payment reason\n    */\n    function newPayment(\n        address _token,\n        address _receiver,\n        uint256 _amount,\n        uint64 _initialPaymentTime,\n        uint64 _interval,\n        uint64 _maxRepeats,\n        string _reference\n    )\n        external\n        authP(CREATE_PAYMENTS_ROLE, arr(_token, _receiver, _amount, _interval, _maxRepeats))\n        transitionsPeriod\n        returns (uint256 paymentId)\n    {\n        require(_amount > 0, ERROR_NEW_PAYMENT_AMOUNT_ZERO);\n\n        // Avoid saving payment data for 1 time immediate payments\n        if (_initialPaymentTime <= getTimestamp64() && _maxRepeats == 1) {\n            _makePaymentTransaction(\n                _token,\n                _receiver,\n                _amount,\n                NO_PAYMENT,   // unrelated to any payment id; it isn't created\n                0,   // also unrelated to any payment repeats\n                _reference\n            );\n            return;\n        }\n\n        // Budget must allow at least one instance of this payment each period, or not be set at all\n        require(settings.budgets[_token] >= _amount || !settings.hasBudget[_token], ERROR_BUDGET);\n\n        paymentId = paymentsNextIndex++;\n        emit NewPayment(paymentId, _receiver, _maxRepeats, _reference);\n\n        Payment storage payment = payments[paymentId];\n        payment.token = _token;\n        payment.receiver = _receiver;\n        payment.amount = _amount;\n        payment.initialPaymentTime = _initialPaymentTime;\n        payment.interval = _interval;\n        payment.maxRepeats = _maxRepeats;\n        payment.createdBy = msg.sender;\n\n        if (nextPaymentTime(paymentId) <= getTimestamp64()) {\n            _executePayment(paymentId);\n        }\n    }\n\n    /**\n    * @notice Change period duration to `@transformTime(_periodDuration)`, effective for next accounting period\n    * @param _periodDuration Duration in seconds for accounting periods\n    */\n    function setPeriodDuration(uint64 _periodDuration)\n        external\n        authP(CHANGE_PERIOD_ROLE, arr(uint256(_periodDuration), uint256(settings.periodDuration)))\n        transitionsPeriod\n    {\n        require(_periodDuration >= 1 days, ERROR_SET_PERIOD_TOO_SHORT);\n        settings.periodDuration = _periodDuration;\n        emit ChangePeriodDuration(_periodDuration);\n    }\n\n    /**\n    * @notice Set budget for `_token.symbol(): string` to `@tokenAmount(_token, _amount, false)`, effective immediately\n    * @param _token Address for token\n    * @param _amount New budget amount\n    */\n    function setBudget(\n        address _token,\n        uint256 _amount\n    )\n        external\n        authP(CHANGE_BUDGETS_ROLE, arr(_token, _amount, settings.budgets[_token], settings.hasBudget[_token] ? 1 : 0))\n        transitionsPeriod\n    {\n        settings.budgets[_token] = _amount;\n        if (!settings.hasBudget[_token]) {\n            settings.hasBudget[_token] = true;\n        }\n        emit SetBudget(_token, _amount, true);\n    }\n\n    /**\n    * @notice Remove spending limit for `_token.symbol(): string`, effective immediately\n    * @param _token Address for token\n    */\n    function removeBudget(address _token)\n        external\n        authP(CHANGE_BUDGETS_ROLE, arr(_token, uint256(0), settings.budgets[_token], settings.hasBudget[_token] ? 1 : 0))\n        transitionsPeriod\n    {\n        settings.budgets[_token] = 0;\n        settings.hasBudget[_token] = false;\n        emit SetBudget(_token, 0, false);\n    }\n\n    /**\n    * @dev Executes any payment (requires role)\n    * @notice Execute pending payment #`_paymentId`\n    * @param _paymentId Identifier for payment\n    */\n    function executePayment(uint256 _paymentId)\n        external\n        authP(EXECUTE_PAYMENTS_ROLE, arr(_paymentId, payments[_paymentId].amount))\n        paymentExists(_paymentId)\n        transitionsPeriod\n    {\n        require(nextPaymentTime(_paymentId) <= getTimestamp64(), ERROR_EXECUTE_PAYMENT_TIME);\n\n        _executePayment(_paymentId);\n    }\n\n    /**\n    * @dev Always allows receiver of a payment to trigger execution\n    * @notice Execute pending payment #`_paymentId`\n    * @param _paymentId Identifier for payment\n    */\n    function receiverExecutePayment(uint256 _paymentId) external isInitialized paymentExists(_paymentId) transitionsPeriod {\n        require(nextPaymentTime(_paymentId) <= getTimestamp64(), ERROR_RECEIVER_EXECUTE_PAYMENT_TIME);\n        require(payments[_paymentId].receiver == msg.sender, ERROR_PAYMENT_RECEIVER);\n\n        _executePayment(_paymentId);\n    }\n\n    /**\n    * @notice `_active ? 'Activate' : 'Disable'` payment #`_paymentId`\n    * @dev Note that we do not require this action to transition periods, as it doesn't directly\n    *      impact any accounting periods.\n    *      Not having to transition periods also makes disabling payments easier to prevent funds\n    *      from being pulled out in the event of a breach.\n    * @param _paymentId Identifier for payment\n    * @param _active Whether it will be active or inactive\n    */\n    function setPaymentStatus(uint256 _paymentId, bool _active)\n        external\n        authP(MANAGE_PAYMENTS_ROLE, arr(_paymentId, uint256(_active ? 1 : 0)))\n        paymentExists(_paymentId)\n    {\n        payments[_paymentId].inactive = !_active;\n        emit ChangePaymentState(_paymentId, _active);\n    }\n\n    /**\n     * @dev Allows making a simple payment from this contract to the Vault, to avoid locked tokens.\n     *      This contract should never receive tokens with a simple transfer call, but in case it\n     *      happens, this function allows for their recovery.\n     * @notice Send tokens held in this contract to the Vault\n     * @param _token Token whose balance is going to be transferred.\n     */\n    function recoverToVault(address _token) public isInitialized transitionsPeriod {\n        uint256 amount = _token == ETH ? address(this).balance : ERC20(_token).balanceOf(this);\n        require(amount > 0, ERROR_RECOVER_AMOUNT_ZERO);\n\n        _deposit(\n            _token,\n            amount,\n            \"Recover to Vault\",\n            this,\n            false\n        );\n    }\n\n    /**\n    * @dev Transitions accounting periods if needed. For preventing OOG attacks, a maxTransitions\n    *      param is provided. If more than the specified number of periods need to be transitioned,\n    *      it will return false.\n    * @notice Transition accounting period if needed\n    * @param _maxTransitions Maximum periods that can be transitioned\n    * @return success Boolean indicating whether the accounting period is the correct one (if false,\n    *                 maxTransitions was surpased and another call is needed)\n    */\n    function tryTransitionAccountingPeriod(uint64 _maxTransitions) public isInitialized returns (bool success) {\n        return _tryTransitionAccountingPeriod(_maxTransitions);\n    }\n\n    // consts\n\n    /**\n    * @dev Disable recovery escape hatch if the app has been initialized, as it could be used\n    *      maliciously to transfer funds in the Finance app to another Vault\n    *      finance#recoverToVault() should be used to recover funds to the Finance's vault\n    */\n    function allowRecoverability(address) public view returns (bool) {\n        return !hasInitialized();\n    }\n\n    function getPayment(uint256 _paymentId)\n        public\n        view\n        paymentExists(_paymentId)\n        returns (\n            address token,\n            address receiver,\n            uint256 amount,\n            uint64 initialPaymentTime,\n            uint64 interval,\n            uint64 maxRepeats,\n            bool inactive,\n            uint64 repeats,\n            address createdBy\n        )\n    {\n        Payment storage payment = payments[_paymentId];\n\n        token = payment.token;\n        receiver = payment.receiver;\n        amount = payment.amount;\n        initialPaymentTime = payment.initialPaymentTime;\n        interval = payment.interval;\n        maxRepeats = payment.maxRepeats;\n        repeats = payment.repeats;\n        inactive = payment.inactive;\n        createdBy = payment.createdBy;\n    }\n\n    function getTransaction(uint256 _transactionId)\n        public\n        view\n        transactionExists(_transactionId)\n        returns (\n            uint64 periodId,\n            uint256 amount,\n            uint256 paymentId,\n            uint64 paymentRepeatNumber,\n            address token,\n            address entity,\n            bool isIncoming,\n            uint64 date\n        )\n    {\n        Transaction storage transaction = transactions[_transactionId];\n\n        token = transaction.token;\n        entity = transaction.entity;\n        isIncoming = transaction.isIncoming;\n        date = transaction.date;\n        periodId = transaction.periodId;\n        amount = transaction.amount;\n        paymentId = transaction.paymentId;\n        paymentRepeatNumber = transaction.paymentRepeatNumber;\n    }\n\n    function getPeriod(uint64 _periodId)\n        public\n        view\n        periodExists(_periodId)\n        returns (\n            bool isCurrent,\n            uint64 startTime,\n            uint64 endTime,\n            uint256 firstTransactionId,\n            uint256 lastTransactionId\n        )\n    {\n        Period storage period = periods[_periodId];\n\n        isCurrent = _currentPeriodId() == _periodId;\n\n        startTime = period.startTime;\n        endTime = period.endTime;\n        firstTransactionId = period.firstTransactionId;\n        lastTransactionId = period.lastTransactionId;\n    }\n\n    function getPeriodTokenStatement(uint64 _periodId, address _token)\n        public\n        view\n        periodExists(_periodId)\n        returns (uint256 expenses, uint256 income)\n    {\n        TokenStatement storage tokenStatement = periods[_periodId].tokenStatement[_token];\n        expenses = tokenStatement.expenses;\n        income = tokenStatement.income;\n    }\n\n    function nextPaymentTime(uint256 _paymentId) public view paymentExists(_paymentId) returns (uint64) {\n        Payment memory payment = payments[_paymentId];\n\n        if (payment.repeats >= payment.maxRepeats) {\n            return MAX_UINT64; // re-executes in some billions of years time... should not need to worry\n        }\n\n        // Split in multiple lines to circunvent linter warning\n        uint64 increase = payment.repeats.mul(payment.interval);\n        uint64 nextPayment = payment.initialPaymentTime.add(increase);\n        return nextPayment;\n    }\n\n    function getPeriodDuration() public view returns (uint64) {\n        return settings.periodDuration;\n    }\n\n    function getBudget(address _token) public view returns (uint256 budget, bool hasBudget) {\n        budget = settings.budgets[_token];\n        hasBudget = settings.hasBudget[_token];\n    }\n\n    /**\n    * @dev We have to check for initialization as periods are only valid after initializing\n    */\n    function getRemainingBudget(address _token) public view isInitialized returns (uint256) {\n        return _getRemainingBudget(_token);\n    }\n\n    /**\n    * @dev We have to check for initialization as periods are only valid after initializing\n    */\n    function currentPeriodId() public view isInitialized returns (uint64) {\n        return _currentPeriodId();\n    }\n\n    // internal fns\n\n    function _deposit(address _token, uint256 _amount, string _reference, address _sender, bool _isExternalDeposit) internal {\n        require(_amount > 0, ERROR_DEPOSIT_AMOUNT_ZERO);\n        _recordIncomingTransaction(\n            _token,\n            _sender,\n            _amount,\n            _reference\n        );\n\n        // If it is an external deposit, check that the assets are actually transferred\n        // External deposit will be false when the assets were already in the Finance app\n        // and just need to be transferred to the vault\n        if (_isExternalDeposit) {\n            if (_token != ETH) {\n                // Get the tokens to Finance\n                require(ERC20(_token).transferFrom(msg.sender, this, _amount), ERROR_TOKEN_TRANSFER_FROM_REVERTED);\n            } else {\n                // Ensure that the ETH sent with the transaction equals the amount in the deposit\n                require(msg.value == _amount, ERROR_VALUE_MISMATCH);\n            }\n        }\n\n        if (_token == ETH) {\n            vault.deposit.value(_amount)(ETH, _amount);\n        } else {\n            ERC20(_token).approve(vault, _amount);\n            // finally we can deposit them\n            vault.deposit(_token, _amount);\n        }\n    }\n\n    function _newPeriod(uint64 _startTime) internal returns (Period storage) {\n        // There should be no way for this to overflow since each period is at least one day\n        uint64 newPeriodId = periodsLength++;\n\n        Period storage period = periods[newPeriodId];\n        period.startTime = _startTime;\n\n        // Be careful here to not overflow; if startTime + periodDuration overflows, we set endTime\n        // to MAX_UINT64 (let's assume that's the end of time for now).\n        uint64 endTime = _startTime + settings.periodDuration - 1;\n        if (endTime < _startTime) { // overflowed\n            endTime = MAX_UINT64;\n        }\n        period.endTime = endTime;\n\n        emit NewPeriod(newPeriodId, period.startTime, period.endTime);\n\n        return period;\n    }\n\n    function _executePayment(uint256 _paymentId) internal {\n        Payment storage payment = payments[_paymentId];\n        require(!payment.inactive, ERROR_PAYMENT_INACTIVE);\n\n        uint64 payed = 0;\n        while (nextPaymentTime(_paymentId) <= getTimestamp64() && payed < MAX_PAYMENTS_PER_TX) {\n            if (!_canMakePayment(payment.token, payment.amount)) {\n                emit PaymentFailure(_paymentId);\n                return;\n            }\n\n            // The while() predicate prevents these two from ever overflowing\n            payment.repeats += 1;\n            payed += 1;\n\n            _makePaymentTransaction(\n                payment.token,\n                payment.receiver,\n                payment.amount,\n                _paymentId,\n                payment.repeats,\n                \"\"\n            );\n        }\n    }\n\n    function _makePaymentTransaction(\n        address _token,\n        address _receiver,\n        uint256 _amount,\n        uint256 _paymentId,\n        uint64 _paymentRepeatNumber,\n        string _reference\n    )\n        internal\n    {\n        require(_getRemainingBudget(_token) >= _amount, ERROR_REMAINING_BUDGET);\n        _recordTransaction(\n            false,\n            _token,\n            _receiver,\n            _amount,\n            _paymentId,\n            _paymentRepeatNumber,\n            _reference\n        );\n\n        vault.transfer(_token, _receiver, _amount);\n    }\n\n    function _recordIncomingTransaction(\n        address _token,\n        address _sender,\n        uint256 _amount,\n        string _reference\n    )\n        internal\n    {\n        _recordTransaction(\n            true, // incoming transaction\n            _token,\n            _sender,\n            _amount,\n            NO_PAYMENT, // unrelated to any existing payment\n            0, // and no payment repeats\n            _reference\n        );\n    }\n\n    function _recordTransaction(\n        bool _incoming,\n        address _token,\n        address _entity,\n        uint256 _amount,\n        uint256 _paymentId,\n        uint64 _paymentRepeatNumber,\n        string _reference\n    )\n        internal\n    {\n        uint64 periodId = _currentPeriodId();\n        TokenStatement storage tokenStatement = periods[periodId].tokenStatement[_token];\n        if (_incoming) {\n            tokenStatement.income = tokenStatement.income.add(_amount);\n        } else {\n            tokenStatement.expenses = tokenStatement.expenses.add(_amount);\n        }\n\n        uint256 transactionId = transactionsNextIndex++;\n        Transaction storage transaction = transactions[transactionId];\n        transaction.token = _token;\n        transaction.entity = _entity;\n        transaction.isIncoming = _incoming;\n        transaction.amount = _amount;\n        transaction.paymentId = _paymentId;\n        transaction.paymentRepeatNumber = _paymentRepeatNumber;\n        transaction.date = getTimestamp64();\n        transaction.periodId = periodId;\n\n        Period storage period = periods[periodId];\n        if (period.firstTransactionId == NO_TRANSACTION) {\n            period.firstTransactionId = transactionId;\n        }\n\n        emit NewTransaction(transactionId, _incoming, _entity, _amount, _reference);\n    }\n\n    function _tryTransitionAccountingPeriod(uint256 _maxTransitions) internal returns (bool success) {\n        Period storage currentPeriod = periods[_currentPeriodId()];\n        uint64 timestamp = getTimestamp64();\n\n        // Transition periods if necessary\n        while (timestamp > currentPeriod.endTime) {\n            if (_maxTransitions == 0) {\n                // Required number of transitions is over allowed number, return false indicating\n                // it didn't fully transition\n                return false;\n            }\n            _maxTransitions = _maxTransitions.sub(1);\n\n            // If there were any transactions in period, record which was the last\n            // In case 0 transactions occured, first and last tx id will be 0\n            if (currentPeriod.firstTransactionId != NO_TRANSACTION) {\n                currentPeriod.lastTransactionId = transactionsNextIndex.sub(1);\n            }\n\n            // New period starts at end time + 1\n            currentPeriod = _newPeriod(currentPeriod.endTime.add(1));\n        }\n\n        return true;\n    }\n\n    function _canMakePayment(address _token, uint256 _amount) internal view returns (bool) {\n        return _getRemainingBudget(_token) >= _amount && vault.balance(_token) >= _amount;\n    }\n\n    function _getRemainingBudget(address _token) internal view returns (uint256) {\n        if (!settings.hasBudget[_token]) {\n            return MAX_UINT;\n        }\n\n        uint256 spent = periods[_currentPeriodId()].tokenStatement[_token].expenses;\n\n        // A budget decrease can cause the spent amount to be greater than period budget\n        // If so, return 0 to not allow more spending during period\n        if (spent >= settings.budgets[_token]) {\n            return 0;\n        }\n\n        return settings.budgets[_token].sub(spent);\n    }\n\n    function _currentPeriodId() internal view returns (uint64) {\n        // There is no way for this to overflow if protected by an initialization check\n        return periodsLength - 1;\n    }\n\n    // Must be view for mocking purposes\n    function getMaxPeriodTransitions() internal view returns (uint64) { return MAX_UINT64; }\n}\n",
  "sourcePath": "/Users/davidkajpust/coding-no-icloud-backup/thegraph/Aragon/aragon-apps/apps/finance/contracts/Finance.sol",
  "compiler": {
    "name": "solc",
    "version": "0.4.24+commit.e67f0147.Emscripten.clang"
  },
  "schemaVersion": "3.0.0-beta.0",
  "updatedAt": "2018-11-10T23:36:18.637Z"
}