{
  "contractName": "TokenManager",
  "abi": [
    {
      "constant": true,
      "inputs": [
        {
          "name": "",
          "type": "address"
        }
      ],
      "name": "everHeld",
      "outputs": [
        {
          "name": "",
          "type": "bool"
        }
      ],
      "payable": false,
      "stateMutability": "view",
      "type": "function"
    },
    {
      "constant": true,
      "inputs": [],
      "name": "hasInitialized",
      "outputs": [
        {
          "name": "",
          "type": "bool"
        }
      ],
      "payable": false,
      "stateMutability": "view",
      "type": "function"
    },
    {
      "constant": true,
      "inputs": [],
      "name": "MAX_VESTINGS_PER_ADDRESS",
      "outputs": [
        {
          "name": "",
          "type": "uint256"
        }
      ],
      "payable": false,
      "stateMutability": "view",
      "type": "function"
    },
    {
      "constant": true,
      "inputs": [
        {
          "name": "_script",
          "type": "bytes"
        }
      ],
      "name": "getEVMScriptExecutor",
      "outputs": [
        {
          "name": "",
          "type": "address"
        }
      ],
      "payable": false,
      "stateMutability": "view",
      "type": "function"
    },
    {
      "constant": true,
      "inputs": [],
      "name": "getRecoveryVault",
      "outputs": [
        {
          "name": "",
          "type": "address"
        }
      ],
      "payable": false,
      "stateMutability": "view",
      "type": "function"
    },
    {
      "constant": true,
      "inputs": [],
      "name": "appId",
      "outputs": [
        {
          "name": "",
          "type": "bytes32"
        }
      ],
      "payable": false,
      "stateMutability": "view",
      "type": "function"
    },
    {
      "constant": true,
      "inputs": [],
      "name": "ISSUE_ROLE",
      "outputs": [
        {
          "name": "",
          "type": "bytes32"
        }
      ],
      "payable": false,
      "stateMutability": "view",
      "type": "function"
    },
    {
      "constant": true,
      "inputs": [],
      "name": "getInitializationBlock",
      "outputs": [
        {
          "name": "",
          "type": "uint256"
        }
      ],
      "payable": false,
      "stateMutability": "view",
      "type": "function"
    },
    {
      "constant": true,
      "inputs": [
        {
          "name": "",
          "type": "address"
        }
      ],
      "name": "vestingsLengths",
      "outputs": [
        {
          "name": "",
          "type": "uint256"
        }
      ],
      "payable": false,
      "stateMutability": "view",
      "type": "function"
    },
    {
      "constant": false,
      "inputs": [
        {
          "name": "_token",
          "type": "address"
        }
      ],
      "name": "transferToVault",
      "outputs": [],
      "payable": false,
      "stateMutability": "nonpayable",
      "type": "function"
    },
    {
      "constant": true,
      "inputs": [
        {
          "name": "_sender",
          "type": "address"
        },
        {
          "name": "_role",
          "type": "bytes32"
        },
        {
          "name": "_params",
          "type": "uint256[]"
        }
      ],
      "name": "canPerform",
      "outputs": [
        {
          "name": "",
          "type": "bool"
        }
      ],
      "payable": false,
      "stateMutability": "view",
      "type": "function"
    },
    {
      "constant": true,
      "inputs": [],
      "name": "getEVMScriptRegistry",
      "outputs": [
        {
          "name": "",
          "type": "address"
        }
      ],
      "payable": false,
      "stateMutability": "view",
      "type": "function"
    },
    {
      "constant": true,
      "inputs": [],
      "name": "ASSIGN_ROLE",
      "outputs": [
        {
          "name": "",
          "type": "bytes32"
        }
      ],
      "payable": false,
      "stateMutability": "view",
      "type": "function"
    },
    {
      "constant": true,
      "inputs": [],
      "name": "BURN_ROLE",
      "outputs": [
        {
          "name": "",
          "type": "bytes32"
        }
      ],
      "payable": false,
      "stateMutability": "view",
      "type": "function"
    },
    {
      "constant": true,
      "inputs": [],
      "name": "kernel",
      "outputs": [
        {
          "name": "",
          "type": "address"
        }
      ],
      "payable": false,
      "stateMutability": "view",
      "type": "function"
    },
    {
      "constant": true,
      "inputs": [],
      "name": "isPetrified",
      "outputs": [
        {
          "name": "",
          "type": "bool"
        }
      ],
      "payable": false,
      "stateMutability": "view",
      "type": "function"
    },
    {
      "constant": true,
      "inputs": [],
      "name": "MINT_ROLE",
      "outputs": [
        {
          "name": "",
          "type": "bytes32"
        }
      ],
      "payable": false,
      "stateMutability": "view",
      "type": "function"
    },
    {
      "constant": true,
      "inputs": [],
      "name": "maxAccountTokens",
      "outputs": [
        {
          "name": "",
          "type": "uint256"
        }
      ],
      "payable": false,
      "stateMutability": "view",
      "type": "function"
    },
    {
      "constant": true,
      "inputs": [],
      "name": "REVOKE_VESTINGS_ROLE",
      "outputs": [
        {
          "name": "",
          "type": "bytes32"
        }
      ],
      "payable": false,
      "stateMutability": "view",
      "type": "function"
    },
    {
      "constant": true,
      "inputs": [],
      "name": "token",
      "outputs": [
        {
          "name": "",
          "type": "address"
        }
      ],
      "payable": false,
      "stateMutability": "view",
      "type": "function"
    },
    {
      "anonymous": false,
      "inputs": [
        {
          "indexed": true,
          "name": "receiver",
          "type": "address"
        },
        {
          "indexed": false,
          "name": "vestingId",
          "type": "uint256"
        },
        {
          "indexed": false,
          "name": "amount",
          "type": "uint256"
        }
      ],
      "name": "NewVesting",
      "type": "event"
    },
    {
      "anonymous": false,
      "inputs": [
        {
          "indexed": true,
          "name": "receiver",
          "type": "address"
        },
        {
          "indexed": false,
          "name": "vestingId",
          "type": "uint256"
        },
        {
          "indexed": false,
          "name": "nonVestedAmount",
          "type": "uint256"
        }
      ],
      "name": "RevokeVesting",
      "type": "event"
    },
    {
      "anonymous": false,
      "inputs": [
        {
          "indexed": true,
          "name": "executor",
          "type": "address"
        },
        {
          "indexed": false,
          "name": "script",
          "type": "bytes"
        },
        {
          "indexed": false,
          "name": "input",
          "type": "bytes"
        },
        {
          "indexed": false,
          "name": "returnData",
          "type": "bytes"
        }
      ],
      "name": "ScriptResult",
      "type": "event"
    },
    {
      "constant": false,
      "inputs": [
        {
          "name": "_token",
          "type": "address"
        },
        {
          "name": "_transferable",
          "type": "bool"
        },
        {
          "name": "_maxAccountTokens",
          "type": "uint256"
        }
      ],
      "name": "initialize",
      "outputs": [],
      "payable": false,
      "stateMutability": "nonpayable",
      "type": "function"
    },
    {
      "constant": false,
      "inputs": [
        {
          "name": "_receiver",
          "type": "address"
        },
        {
          "name": "_amount",
          "type": "uint256"
        }
      ],
      "name": "mint",
      "outputs": [],
      "payable": false,
      "stateMutability": "nonpayable",
      "type": "function"
    },
    {
      "constant": false,
      "inputs": [
        {
          "name": "_amount",
          "type": "uint256"
        }
      ],
      "name": "issue",
      "outputs": [],
      "payable": false,
      "stateMutability": "nonpayable",
      "type": "function"
    },
    {
      "constant": false,
      "inputs": [
        {
          "name": "_receiver",
          "type": "address"
        },
        {
          "name": "_amount",
          "type": "uint256"
        }
      ],
      "name": "assign",
      "outputs": [],
      "payable": false,
      "stateMutability": "nonpayable",
      "type": "function"
    },
    {
      "constant": false,
      "inputs": [
        {
          "name": "_holder",
          "type": "address"
        },
        {
          "name": "_amount",
          "type": "uint256"
        }
      ],
      "name": "burn",
      "outputs": [],
      "payable": false,
      "stateMutability": "nonpayable",
      "type": "function"
    },
    {
      "constant": false,
      "inputs": [
        {
          "name": "_receiver",
          "type": "address"
        },
        {
          "name": "_amount",
          "type": "uint256"
        },
        {
          "name": "_start",
          "type": "uint64"
        },
        {
          "name": "_cliff",
          "type": "uint64"
        },
        {
          "name": "_vested",
          "type": "uint64"
        },
        {
          "name": "_revokable",
          "type": "bool"
        }
      ],
      "name": "assignVested",
      "outputs": [
        {
          "name": "",
          "type": "uint256"
        }
      ],
      "payable": false,
      "stateMutability": "nonpayable",
      "type": "function"
    },
    {
      "constant": false,
      "inputs": [
        {
          "name": "_holder",
          "type": "address"
        },
        {
          "name": "_vestingId",
          "type": "uint256"
        }
      ],
      "name": "revokeVesting",
      "outputs": [],
      "payable": false,
      "stateMutability": "nonpayable",
      "type": "function"
    },
    {
      "constant": false,
      "inputs": [
        {
          "name": "_evmScript",
          "type": "bytes"
        }
      ],
      "name": "forward",
      "outputs": [],
      "payable": false,
      "stateMutability": "nonpayable",
      "type": "function"
    },
    {
      "constant": true,
      "inputs": [],
      "name": "isForwarder",
      "outputs": [
        {
          "name": "",
          "type": "bool"
        }
      ],
      "payable": false,
      "stateMutability": "pure",
      "type": "function"
    },
    {
      "constant": true,
      "inputs": [
        {
          "name": "_sender",
          "type": "address"
        },
        {
          "name": "",
          "type": "bytes"
        }
      ],
      "name": "canForward",
      "outputs": [
        {
          "name": "",
          "type": "bool"
        }
      ],
      "payable": false,
      "stateMutability": "view",
      "type": "function"
    },
    {
      "constant": true,
      "inputs": [
        {
          "name": "_recipient",
          "type": "address"
        },
        {
          "name": "_vestingId",
          "type": "uint256"
        }
      ],
      "name": "getVesting",
      "outputs": [
        {
          "name": "amount",
          "type": "uint256"
        },
        {
          "name": "start",
          "type": "uint64"
        },
        {
          "name": "cliff",
          "type": "uint64"
        },
        {
          "name": "vesting",
          "type": "uint64"
        },
        {
          "name": "revokable",
          "type": "bool"
        }
      ],
      "payable": false,
      "stateMutability": "view",
      "type": "function"
    },
    {
      "constant": false,
      "inputs": [
        {
          "name": "_from",
          "type": "address"
        },
        {
          "name": "_to",
          "type": "address"
        },
        {
          "name": "_amount",
          "type": "uint256"
        }
      ],
      "name": "onTransfer",
      "outputs": [
        {
          "name": "",
          "type": "bool"
        }
      ],
      "payable": false,
      "stateMutability": "nonpayable",
      "type": "function"
    },
    {
      "constant": false,
      "inputs": [
        {
          "name": "",
          "type": "address"
        }
      ],
      "name": "proxyPayment",
      "outputs": [
        {
          "name": "",
          "type": "bool"
        }
      ],
      "payable": true,
      "stateMutability": "payable",
      "type": "function"
    },
    {
      "constant": false,
      "inputs": [
        {
          "name": "",
          "type": "address"
        },
        {
          "name": "",
          "type": "address"
        },
        {
          "name": "",
          "type": "uint256"
        }
      ],
      "name": "onApprove",
      "outputs": [
        {
          "name": "",
          "type": "bool"
        }
      ],
      "payable": false,
      "stateMutability": "nonpayable",
      "type": "function"
    },
    {
      "constant": true,
      "inputs": [
        {
          "name": "_holder",
          "type": "address"
        }
      ],
      "name": "spendableBalanceOf",
      "outputs": [
        {
          "name": "",
          "type": "uint256"
        }
      ],
      "payable": false,
      "stateMutability": "view",
      "type": "function"
    },
    {
      "constant": true,
      "inputs": [
        {
          "name": "_holder",
          "type": "address"
        },
        {
          "name": "_time",
          "type": "uint256"
        }
      ],
      "name": "transferableBalance",
      "outputs": [
        {
          "name": "",
          "type": "uint256"
        }
      ],
      "payable": false,
      "stateMutability": "view",
      "type": "function"
    },
    {
      "constant": true,
      "inputs": [
        {
          "name": "_token",
          "type": "address"
        }
      ],
      "name": "allowRecoverability",
      "outputs": [
        {
          "name": "",
          "type": "bool"
        }
      ],
      "payable": false,
      "stateMutability": "view",
      "type": "function"
    }
  ],
  "bytecode": "0x6080604052620000176401000000006200001d810204565b6200023b565b6200003064010000000062000125810204565b60408051808201909152601881527f494e49545f414c52454144595f494e495449414c495a45440000000000000000602082015290156200010c576040517f08c379a00000000000000000000000000000000000000000000000000000000081526004018080602001828103825283818151815260200191508051906020019080838360005b83811015620000d0578181015183820152602001620000b6565b50505050905090810190601f168015620000fe5780820380516001836020036101000a031916815260200191505b509250505060405180910390fd5b506200012360001964010000000062000154810204565b565b60006200014f60008051602062003ede833981519152640100000000620032296200023382021704565b905090565b6200016764010000000062000125810204565b60408051808201909152601881527f494e49545f414c52454144595f494e495449414c495a454400000000000000006020820152901562000206576040517f08c379a000000000000000000000000000000000000000000000000000000000815260040180806020018281038252838181518152602001915080519060200190808383600083811015620000d0578181015183820152602001620000b6565b506200023060008051602062003ede8339815191528264010000000062003c5f6200023782021704565b50565b5490565b9055565b613c93806200024b6000396000f3006080604052600436106101cc5763ffffffff7c010000000000000000000000000000000000000000000000000000000060003504166303f413d181146101d15780630803fac0146102135780630db3971b146102285780630f8f8b831461024f57806321cb18cd1461027d5780632914b9bd146102cc57806332f0a3b51461034e5780633e05a36d1461036357806340c10f19146103cd5780634a3931491461040057806372f8393c146104375780637e7db6e11461046857806380afdea814610496578063856222f1146104ab5780638b3dd749146104c057806397f2562a146104d55780639d4941d8146105035780639dc29fac14610531578063a1658fad14610562578063a479e508146105d6578063a51d9a8e146105eb578063b930908f14610600578063be76048814610615578063c0774df314610646578063cc872b66146106ba578063d4aae0c4146106d2578063d948d468146106e7578063da682aeb14610740578063de4796ed14610777578063e37ff29f1461078c578063e9a9c850146107c2578063ecfda432146107d7578063edc168f1146107ec578063f48c305414610801578063fa6799f214610822578063fc0c546a14610853578063fd64eccb14610868575b600080fd5b3480156101dd57600080fd5b506101ff73ffffffffffffffffffffffffffffffffffffffff6004351661087d565b604080519115158252519081900360200190f35b34801561021f57600080fd5b506101ff610892565b34801561023457600080fd5b5061023d6108bb565b60408051918252519081900360200190f35b34801561025b57600080fd5b5061023d73ffffffffffffffffffffffffffffffffffffffff600435166108c0565b34801561028957600080fd5b5061023d73ffffffffffffffffffffffffffffffffffffffff6004351660243567ffffffffffffffff6044358116906064358116906084351660a43515156108d2565b3480156102d857600080fd5b506040805160206004803580820135601f8101849004840285018401909552848452610325943694929360249392840191908190840183828082843750949750610da09650505050505050565b6040805173ffffffffffffffffffffffffffffffffffffffff9092168252519081900360200190f35b34801561035a57600080fd5b50610325610eac565b34801561036f57600080fd5b5061039473ffffffffffffffffffffffffffffffffffffffff60043516602435610f4a565b6040805195865267ffffffffffffffff948516602087015292841685840152921660608401529015156080830152519081900360a00190f35b3480156103d957600080fd5b506103fe73ffffffffffffffffffffffffffffffffffffffff600435166024356110d3565b005b34801561040c57600080fd5b506101ff73ffffffffffffffffffffffffffffffffffffffff60043581169060243516604435611270565b34801561044357600080fd5b5061023d73ffffffffffffffffffffffffffffffffffffffff60043516602435611451565b34801561047457600080fd5b506101ff73ffffffffffffffffffffffffffffffffffffffff600435166115e7565b3480156104a257600080fd5b5061023d611609565b3480156104b757600080fd5b5061023d611639565b3480156104cc57600080fd5b5061023d61166e565b3480156104e157600080fd5b5061023d73ffffffffffffffffffffffffffffffffffffffff60043516611699565b34801561050f57600080fd5b506103fe73ffffffffffffffffffffffffffffffffffffffff600435166116ab565b34801561053d57600080fd5b506103fe73ffffffffffffffffffffffffffffffffffffffff600435166024356119b4565b34801561056e57600080fd5b5060408051602060046044358181013583810280860185019096528085526101ff95833573ffffffffffffffffffffffffffffffffffffffff16956024803596369695606495939492019291829185019084908082843750949750611b4a9650505050505050565b3480156105e257600080fd5b50610325611cd0565b3480156105f757600080fd5b5061023d611d92565b34801561060c57600080fd5b5061023d611dc7565b34801561062157600080fd5b506103fe73ffffffffffffffffffffffffffffffffffffffff60043516602435611dfc565b34801561065257600080fd5b5060408051602060046024803582810135601f81018590048502860185019096528585526101ff95833573ffffffffffffffffffffffffffffffffffffffff16953695604494919390910191908190840183828082843750949750611eeb9650505050505050565b3480156106c657600080fd5b506103fe600435611fa6565b3480156106de57600080fd5b50610325612094565b3480156106f357600080fd5b506040805160206004803580820135601f81018490048402850184019095528484526103fe9436949293602493928401919081908401838280828437509497506120bf9650505050505050565b34801561074c57600080fd5b506101ff73ffffffffffffffffffffffffffffffffffffffff600435811690602435166044356121ed565b34801561078357600080fd5b506101ff6121f6565b34801561079857600080fd5b506103fe73ffffffffffffffffffffffffffffffffffffffff600435166024351515604435612227565b3480156107ce57600080fd5b5061023d6125eb565b3480156107e357600080fd5b5061023d612620565b3480156107f857600080fd5b5061023d612626565b6101ff73ffffffffffffffffffffffffffffffffffffffff6004351661265b565b34801561082e57600080fd5b506103fe73ffffffffffffffffffffffffffffffffffffffff6004351660243561271b565b34801561085f57600080fd5b50610325612bfc565b34801561087457600080fd5b506101ff612c18565b60046020526000908152604090205460ff1681565b60008061089d61166e565b905080158015906108b55750806108b2612c1d565b10155b91505090565b603281565b60006108cc8242611451565b92915050565b604080517f41535349474e5f524f4c450000000000000000000000000000000000000000008152905190819003600b01902060009081906109138989612c21565b61091e338383611b4a565b60408051808201909152600f81527f4150505f415554485f4641494c4544000000000000000000000000000000000060208201529015156109f7576040517f08c379a00000000000000000000000000000000000000000000000000000000081526004018080602001828103825283818151815260200191508051906020019080838360005b838110156109bc5781810151838201526020016109a4565b50505050905090810190601f1680156109e95780820380516001836020036101000a031916815260200191505b509250505060405180910390fd5b5073ffffffffffffffffffffffffffffffffffffffff8a16600090815260036020908152604091829020548251808401909352601483527f544d5f544f4f5f4d414e595f56455354494e475300000000000000000000000091830191909152603211610abf576040517f08c379a0000000000000000000000000000000000000000000000000000000008152600401808060200182810382528381815181526020019150805190602001908083836000838110156109bc5781810151838201526020016109a4565b508667ffffffffffffffff168867ffffffffffffffff1611158015610af857508567ffffffffffffffff168767ffffffffffffffff1611155b60408051808201909152601381527f544d5f57524f4e475f434c4946465f44415445000000000000000000000000006020820152901515610b95576040517f08c379a0000000000000000000000000000000000000000000000000000000008152600401808060200182810382528381815181526020019150805190602001908083836000838110156109bc5781810151838201526020016109a4565b50600360008b73ffffffffffffffffffffffffffffffffffffffff1673ffffffffffffffffffffffffffffffffffffffff168152602001908152602001600020600081548092919060010191905055925060a0604051908101604052808a81526020018967ffffffffffffffff1681526020018867ffffffffffffffff1681526020018767ffffffffffffffff168152602001861515815250600260008c73ffffffffffffffffffffffffffffffffffffffff1673ffffffffffffffffffffffffffffffffffffffff16815260200190815260200160002060008581526020019081526020016000206000820151816000015560208201518160010160006101000a81548167ffffffffffffffff021916908367ffffffffffffffff16021790555060408201518160010160086101000a81548167ffffffffffffffff021916908367ffffffffffffffff16021790555060608201518160010160106101000a81548167ffffffffffffffff021916908367ffffffffffffffff16021790555060808201518160010160186101000a81548160ff021916908315150217905550905050610d428a8a612c43565b60408051848152602081018b9052815173ffffffffffffffffffffffffffffffffffffffff8d16927f627ad26dcfe82ec79b33fda0ddd062f6fab9f4914acac8345f79090dfd86fb54928290030190a2509098975050505050505050565b6000610daa611cd0565b73ffffffffffffffffffffffffffffffffffffffff166304bf2a7f836040518263ffffffff167c01000000000000000000000000000000000000000000000000000000000281526004018080602001828103825283818151815260200191508051906020019080838360005b83811015610e2e578181015183820152602001610e16565b50505050905090810190601f168015610e5b5780820380516001836020036101000a031916815260200191505b5092505050602060405180830381600087803b158015610e7a57600080fd5b505af1158015610e8e573d6000803e3d6000fd5b505050506040513d6020811015610ea457600080fd5b505192915050565b6000610eb6612094565b73ffffffffffffffffffffffffffffffffffffffff166332f0a3b56040518163ffffffff167c0100000000000000000000000000000000000000000000000000000000028152600401602060405180830381600087803b158015610f1957600080fd5b505af1158015610f2d573d6000803e3d6000fd5b505050506040513d6020811015610f4357600080fd5b5051905090565b6000806000806000808787600360008373ffffffffffffffffffffffffffffffffffffffff1673ffffffffffffffffffffffffffffffffffffffff1681526020019081526020016000205481106040805190810160405280600d81526020017f544d5f4e4f5f56455354494e4700000000000000000000000000000000000000815250901515611036576040517f08c379a0000000000000000000000000000000000000000000000000000000008152600401808060200182810382528381815181526020019150805190602001908083836000838110156109bc5781810151838201526020016109a4565b5050505073ffffffffffffffffffffffffffffffffffffffff969096166000908152600260209081526040808320978352969052949094208054600190910154909667ffffffffffffffff8083169750680100000000000000008304811696507001000000000000000000000000000000008304169450780100000000000000000000000000000000000000000000000090910460ff1692509050565b604080517f4d494e545f524f4c4500000000000000000000000000000000000000000000008152905190819003600901902061110f8383612c21565b61111a338383611b4a565b60408051808201909152600f81527f4150505f415554485f4641494c4544000000000000000000000000000000000060208201529015156111b7576040517f08c379a0000000000000000000000000000000000000000000000000000000008152600401808060200182810382528381815181526020019150805190602001908083836000838110156109bc5781810151838201526020016109a4565b506111c28484612e39565b60408051808201909152601b81527f544d5f4d494e545f42414c5f494e435f4e4f545f414c4c4f5745440000000000602082015290151561125f576040517f08c379a0000000000000000000000000000000000000000000000000000000008152600401808060200182810382528381815181526020019150805190602001908083836000838110156109bc5781810151838201526020016109a4565b5061126a8484612ef8565b50505050565b600080600061127d610892565b60408051808201909152601481527f494e49545f4e4f545f494e495449414c495a4544000000000000000000000000602082015290151561131a576040517f08c379a0000000000000000000000000000000000000000000000000000000008152600401808060200182810382528381815181526020019150805190602001908083836000838110156109bc5781810151838201526020016109a4565b5060005460408051808201909152601881527f544d5f5452414e534645525f57524f4e475f53454e444552000000000000000060208201529073ffffffffffffffffffffffffffffffffffffffff1633146113d1576040517f08c379a0000000000000000000000000000000000000000000000000000000008152600401808060200182810382528381815181526020019150805190602001908083836000838110156109bc5781810151838201526020016109a4565b5073ffffffffffffffffffffffffffffffffffffffff861630148061140b575073ffffffffffffffffffffffffffffffffffffffff851630145b91508115156114435761141e8585612e39565b90508015806114355750836114338742611451565b105b156114435760009250611448565b600192505b50509392505050565b73ffffffffffffffffffffffffffffffffffffffff8216600090815260036020526040812054818080805b848310156115255773ffffffffffffffffffffffffffffffffffffffff8816600090815260026020908152604080832086845290915290208054909250611506906114c689612fa1565b600185015467ffffffffffffffff918216918181169168010000000000000000810482169170010000000000000000000000000000000090910416613051565b9050611518848263ffffffff6130cd16565b935060019092019161147c565b60008054604080517f70a0823100000000000000000000000000000000000000000000000000000000815273ffffffffffffffffffffffffffffffffffffffff8c8116600483015291516115db94899493909316926370a0823192602480820193602093909283900390910190829087803b1580156115a357600080fd5b505af11580156115b7573d6000803e3d6000fd5b505050506040513d60208110156115cd57600080fd5b50519063ffffffff61317e16565b98975050505050505050565b60005473ffffffffffffffffffffffffffffffffffffffff9081169116141590565b60006116347fd625496217aa6a3453eecb9c3489dc5a53e6c67b444329ea2b2cbc9ff547639b613229565b905090565b604080517f49535355455f524f4c45000000000000000000000000000000000000000000008152905190819003600a01902081565b60006116347febb05b386a8d34882b8711d156f463690983dc47815980fb82aeeff1aa43579e613229565b60036020526000908152604090205481565b6000806116b7836115e7565b60408051808201909152601281527f5245434f5645525f444953414c4c4f57454400000000000000000000000000006020820152901515611754576040517f08c379a0000000000000000000000000000000000000000000000000000000008152600401808060200182810382528381815181526020019150805190602001908083836000838110156109bc5781810151838201526020016109a4565b5061175d610eac565b915061176882613231565b60408051808201909152601a81527f5245434f5645525f5641554c545f4e4f545f434f4e54524143540000000000006020820152901515611805576040517f08c379a0000000000000000000000000000000000000000000000000000000008152600401808060200182810382528381815181526020019150805190602001908083836000838110156109bc5781810151838201526020016109a4565b5073ffffffffffffffffffffffffffffffffffffffff8316151561186c5760405173ffffffffffffffffffffffffffffffffffffffff831690303180156108fc02916000818181858888f19350505050158015611866573d6000803e3d6000fd5b506119af565b604080517f70a08231000000000000000000000000000000000000000000000000000000008152306004820152905173ffffffffffffffffffffffffffffffffffffffff8516916370a082319160248083019260209291908290030181600087803b1580156118da57600080fd5b505af11580156118ee573d6000803e3d6000fd5b505050506040513d602081101561190457600080fd5b5051604080517fa9059cbb00000000000000000000000000000000000000000000000000000000815273ffffffffffffffffffffffffffffffffffffffff85811660048301526024820184905291519293509085169163a9059cbb916044808201926020929091908290030181600087803b15801561198257600080fd5b505af1158015611996573d6000803e3d6000fd5b505050506040513d60208110156119ac57600080fd5b50505b505050565b604080517f4255524e5f524f4c450000000000000000000000000000000000000000000000815290519081900360090190206119f08383612c21565b6119fb338383611b4a565b60408051808201909152600f81527f4150505f415554485f4641494c454400000000000000000000000000000000006020820152901515611a98576040517f08c379a0000000000000000000000000000000000000000000000000000000008152600401808060200182810382528381815181526020019150805190602001908083836000838110156109bc5781810151838201526020016109a4565b5060008054604080517fd3ce77fe00000000000000000000000000000000000000000000000000000000815273ffffffffffffffffffffffffffffffffffffffff8881166004830152602482018890529151919092169263d3ce77fe92604480820193602093909283900390910190829087803b158015611b1857600080fd5b505af1158015611b2c573d6000803e3d6000fd5b505050506040513d6020811015611b4257600080fd5b505050505050565b60008060606000611b59610892565b1515611b685760009350611cc6565b611b70612094565b925073ffffffffffffffffffffffffffffffffffffffff83161515611b985760009350611cc6565b5050825160209081028085526040517ffdef910600000000000000000000000000000000000000000000000000000000815273ffffffffffffffffffffffffffffffffffffffff888116600483019081523060248401819052604484018a90526080606485019081528951608486015289518a979489169563fdef9106958e958e948b949193909260a4909101919085019080838360005b83811015611c48578181015183820152602001611c30565b50505050905090810190601f168015611c755780820380516001836020036101000a031916815260200191505b5095505050505050602060405180830381600087803b158015611c9757600080fd5b505af1158015611cab573d6000803e3d6000fd5b505050506040513d6020811015611cc157600080fd5b505193505b5050509392505050565b600080611cdb612094565b604080517fbe00bbd80000000000000000000000000000000000000000000000000000000081527fd6f028ca0e8edb4a8c9757ca4fdccab25fa1e0317da1188108f7d2dee14902fb60048201527fddbcfd564f642ab5627cf68b9b7d374fb4f8a36e941a75d89c87998cef03bd616024820152905173ffffffffffffffffffffffffffffffffffffffff929092169163be00bbd8916044808201926020929091908290030181600087803b158015610e7a57600080fd5b604080517f41535349474e5f524f4c450000000000000000000000000000000000000000008152905190819003600b01902081565b604080517f4255524e5f524f4c4500000000000000000000000000000000000000000000008152905190819003600901902081565b604080517f41535349474e5f524f4c450000000000000000000000000000000000000000008152905190819003600b019020611e388383612c21565b611e43338383611b4a565b60408051808201909152600f81527f4150505f415554485f4641494c454400000000000000000000000000000000006020820152901515611ee0576040517f08c379a0000000000000000000000000000000000000000000000000000000008152600401808060200182810382528381815181526020019150805190602001908083836000838110156109bc5781810151838201526020016109a4565b5061126a8484612c43565b6000611ef5610892565b8015611f9f575060008054604080517f70a0823100000000000000000000000000000000000000000000000000000000815273ffffffffffffffffffffffffffffffffffffffff8781166004830152915191909216916370a0823191602480830192602092919082900301818787803b158015611f7157600080fd5b505af1158015611f85573d6000803e3d6000fd5b505050506040513d6020811015611f9b57600080fd5b5051115b9392505050565b604080517f49535355455f524f4c45000000000000000000000000000000000000000000008152905190819003600a019020611fe18261326b565b611fec338383611b4a565b60408051808201909152600f81527f4150505f415554485f4641494c454400000000000000000000000000000000006020820152901515612089576040517f08c379a0000000000000000000000000000000000000000000000000000000008152600401808060200182810382528381815181526020019150805190602001908083836000838110156109bc5781810151838201526020016109a4565b506119af3084612ef8565b60006116347f4172f0f7d2289153072b0a6ca36959e0cbe2efc3afe50fc81636caa96338137b613229565b6060806120cc3384611eeb565b60408051808201909152601281527f544d5f43414e5f4e4f545f464f525741524400000000000000000000000000006020820152901515612169576040517f08c379a0000000000000000000000000000000000000000000000000000000008152600401808060200182810382528381815181526020019150805190602001908083836000838110156109bc5781810151838201526020016109a4565b50604080516000815260016020808301828152606084018552929550919290919085019080388339505060008054835193945073ffffffffffffffffffffffffffffffffffffffff169284925081106121be57fe5b73ffffffffffffffffffffffffffffffffffffffff90921660209283029091019091015261126a8383836132ac565b60019392505050565b60007fffffffffffffffffffffffffffffffffffffffffffffffffffffffffffffffff61222161166e565b14905090565b61222f61166e565b60408051808201909152601881527f494e49545f414c52454144595f494e495449414c495a45440000000000000000602082015290156122cb576040517f08c379a0000000000000000000000000000000000000000000000000000000008152600401808060200182810382528381815181526020019150805190602001908083836000838110156109bc5781810151838201526020016109a4565b506122d4613a0a565b3073ffffffffffffffffffffffffffffffffffffffff168373ffffffffffffffffffffffffffffffffffffffff1663f77c47916040518163ffffffff167c0100000000000000000000000000000000000000000000000000000000028152600401602060405180830381600087803b15801561234f57600080fd5b505af1158015612363573d6000803e3d6000fd5b505050506040513d602081101561237957600080fd5b505160408051808201909152601381527f544d5f544f4b454e5f434f4e54524f4c4c45520000000000000000000000000060208201529173ffffffffffffffffffffffffffffffffffffffff9091161461242f576040517f08c379a0000000000000000000000000000000000000000000000000000000008152600401808060200182810382528381815181526020019150805190602001908083836000838110156109bc5781810151838201526020016109a4565b50600080547fffffffffffffffffffffffff00000000000000000000000000000000000000001673ffffffffffffffffffffffffffffffffffffffff8516179055801561247c578061249e565b7fffffffffffffffffffffffffffffffffffffffffffffffffffffffffffffffff5b6001819055508115156000809054906101000a900473ffffffffffffffffffffffffffffffffffffffff1673ffffffffffffffffffffffffffffffffffffffff1663bef97c876040518163ffffffff167c0100000000000000000000000000000000000000000000000000000000028152600401602060405180830381600087803b15801561252c57600080fd5b505af1158015612540573d6000803e3d6000fd5b505050506040513d602081101561255657600080fd5b50511515146119af5760008054604080517ff41e60c50000000000000000000000000000000000000000000000000000000081528515156004820152905173ffffffffffffffffffffffffffffffffffffffff9092169263f41e60c59260248084019382900301818387803b1580156125ce57600080fd5b505af11580156125e2573d6000803e3d6000fd5b50505050505050565b604080517f4d494e545f524f4c4500000000000000000000000000000000000000000000008152905190819003600901902081565b60015481565b604080517f5245564f4b455f56455354494e47535f524f4c450000000000000000000000008152905190819003601401902081565b6000805460408051808201909152601d81527f544d5f50524f58595f5041594d454e545f57524f4e475f53454e44455200000060208201529073ffffffffffffffffffffffffffffffffffffffff163314612712576040517f08c379a0000000000000000000000000000000000000000000000000000000008152600401808060200182810382528381815181526020019150805190602001908083836000838110156109bc5781810151838201526020016109a4565b50600092915050565b604080517f5245564f4b455f56455354494e47535f524f4c4500000000000000000000000081529051908190036014019020600090819061275b85613ae9565b612766338383611b4a565b60408051808201909152600f81527f4150505f415554485f4641494c454400000000000000000000000000000000006020820152901515612803576040517f08c379a0000000000000000000000000000000000000000000000000000000008152600401808060200182810382528381815181526020019150805190602001908083836000838110156109bc5781810151838201526020016109a4565b5073ffffffffffffffffffffffffffffffffffffffff8616600090815260036020908152604091829020548251808401909352600d83527f544d5f4e4f5f56455354494e4700000000000000000000000000000000000000918301919091528791879182106128ce576040517f08c379a0000000000000000000000000000000000000000000000000000000008152600401808060200182810382528381815181526020019150805190602001908083836000838110156109bc5781810151838201526020016109a4565b5073ffffffffffffffffffffffffffffffffffffffff881660009081526002602090815260408083208a845282529182902060018101548351808501909452601884527f544d5f56455354494e475f4e4f545f5245564f4b41424c4500000000000000009284019290925297507801000000000000000000000000000000000000000000000000900460ff1615156129c2576040517f08c379a0000000000000000000000000000000000000000000000000000000008152600401808060200182810382528381815181526020019150805190602001908083836000838110156109bc5781810151838201526020016109a4565b508554612a11906129d1613b0a565b600189015467ffffffffffffffff918216918181169168010000000000000000810482169170010000000000000000000000000000000090910416613051565b73ffffffffffffffffffffffffffffffffffffffff808a1660008181526002602090815260408083208d8452825280832083815560010180547fffffffffffffff00000000000000000000000000000000000000000000000000169055825481517f23b872dd0000000000000000000000000000000000000000000000000000000081526004810195909552306024860152604485018790529051959a50909316936323b872dd936064808501949193918390030190829087803b158015612ad857600080fd5b505af1158015612aec573d6000803e3d6000fd5b505050506040513d6020811015612b0257600080fd5b50516040805180820190915260208082527f544d5f5245564f4b455f5452414e534645525f46524f4d5f524556455254454490820152901515612ba1576040517f08c379a0000000000000000000000000000000000000000000000000000000008152600401808060200182810382528381815181526020019150805190602001908083836000838110156109bc5781810151838201526020016109a4565b506040805188815260208101879052815173ffffffffffffffffffffffffffffffffffffffff8b16927fafc516b1509f836efdc27d64d966d14f82ef53f456f0de74c12ac8a651a084cc928290030190a25050505050505050565b60005473ffffffffffffffffffffffffffffffffffffffff1681565b600190565b4390565b6060611f9f8373ffffffffffffffffffffffffffffffffffffffff1683613b1c565b612c4d8282612e39565b60408051808201909152601d81527f544d5f41535349474e5f42414c5f494e435f4e4f545f414c4c4f5745440000006020820152901515612cea576040517f08c379a0000000000000000000000000000000000000000000000000000000008152600401808060200182810382528381815181526020019150805190602001908083836000838110156109bc5781810151838201526020016109a4565b5060008054604080517f23b872dd00000000000000000000000000000000000000000000000000000000815230600482015273ffffffffffffffffffffffffffffffffffffffff868116602483015260448201869052915191909216926323b872dd92606480820193602093909283900390910190829087803b158015612d7057600080fd5b505af1158015612d84573d6000803e3d6000fd5b505050506040513d6020811015612d9a57600080fd5b50516040805180820190915260208082527f544d5f41535349474e5f5452414e534645525f46524f4d5f5245564552544544908201529015156119af576040517f08c379a0000000000000000000000000000000000000000000000000000000008152600401808060200182810382528381815181526020019150805190602001908083836000838110156109bc5781810151838201526020016109a4565b60015460008054604080517f70a0823100000000000000000000000000000000000000000000000000000000815273ffffffffffffffffffffffffffffffffffffffff87811660048301529151939493612eef93879316916370a0823191602480830192602092919082900301818a87803b158015612eb757600080fd5b505af1158015612ecb573d6000803e3d6000fd5b505050506040513d6020811015612ee157600080fd5b50519063ffffffff6130cd16565b11159392505050565b60008054604080517f827f32c000000000000000000000000000000000000000000000000000000000815273ffffffffffffffffffffffffffffffffffffffff8681166004830152602482018690529151919092169263827f32c092604480820193602093909283900390910190829087803b158015612f7757600080fd5b505af1158015612f8b573d6000803e3d6000fd5b505050506040513d602081101561126a57600080fd5b60408051808201909152601581527f55494e5436345f4e554d4245525f544f4f5f4249470000000000000000000000602082015260009067ffffffffffffffff83111561304a576040517f08c379a0000000000000000000000000000000000000000000000000000000008152600401808060200182810382528381815181526020019150805190602001908083836000838110156109bc5781810151838201526020016109a4565b5090919050565b60008082861061306457600091506130c3565b83861015613074578691506130c3565b613084838663ffffffff61317e16565b6130a4613097888863ffffffff61317e16565b899063ffffffff613b7716565b8115156130ad57fe5b0490506130c0878263ffffffff61317e16565b91505b5095945050505050565b60408051808201909152601181527f4d4154485f4144445f4f564552464c4f5700000000000000000000000000000060208201526000908383019084821015613172576040517f08c379a0000000000000000000000000000000000000000000000000000000008152600401808060200182810382528381815181526020019150805190602001908083836000838110156109bc5781810151838201526020016109a4565b508091505b5092915050565b60408051808201909152601281527f4d4154485f5355425f554e444552464c4f5700000000000000000000000000006020820152600090819084841115613221576040517f08c379a0000000000000000000000000000000000000000000000000000000008152600401808060200182810382528381815181526020019150805190602001908083836000838110156109bc5781810151838201526020016109a4565b505050900390565b5490565b5490565b60008073ffffffffffffffffffffffffffffffffffffffff8316151561325a5760009150613265565b823b90506000811191505b50919050565b604080516001808252818301909252606091602080830190803883390190505090508181600081518110151561329d57fe5b60209081029091010152919050565b60606000806060806132bc610892565b60408051808201909152601481527f494e49545f4e4f545f494e495449414c495a45440000000000000000000000006020820152901515613359576040517f08c379a0000000000000000000000000000000000000000000000000000000008152600401808060200182810382528381815181526020019150805190602001908083836000838110156109bc5781810151838201526020016109a4565b50600080613365612094565b915061336f611609565b905061337a8a610da0565b60408051808201909152601b81527f45564d52554e5f4558454355544f525f554e415641494c41424c450000000000602082015290965073ffffffffffffffffffffffffffffffffffffffff87161515613430576040517f08c379a0000000000000000000000000000000000000000000000000000000008152600401808060200182810382528381815181526020019150805190602001908083836000838110156109bc5781810151838201526020016109a4565b506040516060602482019081528b5160848301528b517f279cea3500000000000000000000000000000000000000000000000000000000975087928d928d928d9282916044820191606481019160a490910190602089019080838360005b838110156134a657818101518382015260200161348e565b50505050905090810190601f1680156134d35780820380516001836020036101000a031916815260200191505b50848103835286518152865160209182019188019080838360005b838110156135065781810151838201526020016134ee565b50505050905090810190601f1680156135335780820380516001836020036101000a031916815260200191505b508481038252855181528551602091820191808801910280838360005b83811015613568578181015183820152602001613550565b505050509050019650505050505050604051602081830303815290604052907bffffffffffffffffffffffffffffffffffffffffffffffffffffffff19166020820180517bffffffffffffffffffffffffffffffffffffffffffffffffffffffff838183161783525050505093508573ffffffffffffffffffffffffffffffffffffffff168460405180828051906020019080838360005b83811015613618578181015183820152602001613600565b50505050905090810190601f1680156136455780820380516001836020036101000a031916815260200191505b50915050600060405180830381855af460408051808201909152601981527f45564d52554e5f455845435554494f4e5f52455645525445440000000000000060208201529250151590506136f5576040517f08c379a0000000000000000000000000000000000000000000000000000000008152600401808060200182810382528381815181526020019150805190602001908083836000838110156109bc5781810151838201526020016109a4565b506136fe613c39565b92508573ffffffffffffffffffffffffffffffffffffffff167f5229a5dba83a54ae8cb5b51bdd6de9474cacbe9dd332f5185f3a4f4f2e3f4ad98b8b8660405180806020018060200180602001848103845287818151815260200191508051906020019080838360005b83811015613780578181015183820152602001613768565b50505050905090810190601f1680156137ad5780820380516001836020036101000a031916815260200191505b50848103835286518152865160209182019188019080838360005b838110156137e05781810151838201526020016137c8565b50505050905090810190601f16801561380d5780820380516001836020036101000a031916815260200191505b50848103825285518152855160209182019187019080838360005b83811015613840578181015183820152602001613828565b50505050905090810190601f16801561386d5780820380516001836020036101000a031916815260200191505b50965050505050505060405180910390a28296508173ffffffffffffffffffffffffffffffffffffffff166138a0612094565b73ffffffffffffffffffffffffffffffffffffffff16146040805190810160405280601f81526020017f45564d52554e5f50524f5445435445445f53544154455f4d4f44494649454400815250901515613956576040517f08c379a0000000000000000000000000000000000000000000000000000000008152600401808060200182810382528381815181526020019150805190602001908083836000838110156109bc5781810151838201526020016109a4565b5080613960611609565b60408051808201909152601f81527f45564d52554e5f50524f5445435445445f53544154455f4d4f44494649454400602082015291146139fc576040517f08c379a0000000000000000000000000000000000000000000000000000000008152600401808060200182810382528381815181526020019150805190602001908083836000838110156109bc5781810151838201526020016109a4565b505050505050509392505050565b613a1261166e565b60408051808201909152601881527f494e49545f414c52454144595f494e495449414c495a4544000000000000000060208201529015613aae576040517f08c379a0000000000000000000000000000000000000000000000000000000008152600401808060200182810382528381815181526020019150805190602001908083836000838110156109bc5781810151838201526020016109a4565b50613ae7613aba612c1d565b7febb05b386a8d34882b8711d156f463690983dc47815980fb82aeeff1aa43579e9063ffffffff613c5f16565b565b60606108cc8273ffffffffffffffffffffffffffffffffffffffff1661326b565b6000611634613b17613c63565b612fa1565b604080516002808252606080830184529260208301908038833901905050905082816000815181101515613b4c57fe5b602090810290910101528051829082906001908110613b6757fe5b6020908102909101015292915050565b600080831515613b8a5760009150613177565b50828202828482811515613b9a57fe5b60408051808201909152601181527f4d4154485f4d554c5f4f564552464c4f5700000000000000000000000000000060208201529291900414613172576040517f08c379a0000000000000000000000000000000000000000000000000000000008152600401808060200182810382528381815181526020019150805190602001908083836000838110156109bc5781810151838201526020016109a4565b60603d808015613c5a576040519250602082018301604052602082036020843e5b505090565b9055565b42905600a165627a7a7230582066d00c1a3da326ac3fa92ea78f6a62a23cfa713a5190eb9ed8433109056767980029ebb05b386a8d34882b8711d156f463690983dc47815980fb82aeeff1aa43579e",
  "source": "/*\n * SPDX-License-Identitifer:    GPL-3.0-or-later\n */\n\n/* solium-disable function-order */\n\npragma solidity 0.4.24;\n\nimport \"@aragon/os/contracts/apps/AragonApp.sol\";\nimport \"@aragon/os/contracts/common/IForwarder.sol\";\nimport \"@aragon/os/contracts/common/Uint256Helpers.sol\";\n\nimport \"@aragon/os/contracts/lib/token/ERC20.sol\";\nimport \"@aragon/os/contracts/lib/math/SafeMath.sol\";\n\nimport \"@aragon/apps-shared-minime/contracts/ITokenController.sol\";\nimport \"@aragon/apps-shared-minime/contracts/MiniMeToken.sol\";\n\n\ncontract TokenManager is ITokenController, IForwarder, AragonApp {\n    using SafeMath for uint256;\n    using Uint256Helpers for uint256;\n\n    bytes32 public constant MINT_ROLE = keccak256(\"MINT_ROLE\");\n    bytes32 public constant ISSUE_ROLE = keccak256(\"ISSUE_ROLE\");\n    bytes32 public constant ASSIGN_ROLE = keccak256(\"ASSIGN_ROLE\");\n    bytes32 public constant REVOKE_VESTINGS_ROLE = keccak256(\"REVOKE_VESTINGS_ROLE\");\n    bytes32 public constant BURN_ROLE = keccak256(\"BURN_ROLE\");\n\n    uint256 public constant MAX_VESTINGS_PER_ADDRESS = 50;\n\n    string private constant ERROR_NO_VESTING = \"TM_NO_VESTING\";\n    string private constant ERROR_TOKEN_CONTROLLER = \"TM_TOKEN_CONTROLLER\";\n    string private constant ERROR_MINT_BALANCE_INCREASE_NOT_ALLOWED = \"TM_MINT_BAL_INC_NOT_ALLOWED\";\n    string private constant ERROR_ASSIGN_BALANCE_INCREASE_NOT_ALLOWED = \"TM_ASSIGN_BAL_INC_NOT_ALLOWED\";\n    string private constant ERROR_TOO_MANY_VESTINGS = \"TM_TOO_MANY_VESTINGS\";\n    string private constant ERROR_WRONG_CLIFF_DATE = \"TM_WRONG_CLIFF_DATE\";\n    string private constant ERROR_VESTING_NOT_REVOKABLE = \"TM_VESTING_NOT_REVOKABLE\";\n    string private constant ERROR_REVOKE_TRANSFER_FROM_REVERTED = \"TM_REVOKE_TRANSFER_FROM_REVERTED\";\n    string private constant ERROR_ASSIGN_TRANSFER_FROM_REVERTED = \"TM_ASSIGN_TRANSFER_FROM_REVERTED\";\n    string private constant ERROR_CAN_NOT_FORWARD = \"TM_CAN_NOT_FORWARD\";\n    string private constant ERROR_ON_TRANSFER_WRONG_SENDER = \"TM_TRANSFER_WRONG_SENDER\";\n    string private constant ERROR_PROXY_PAYMENT_WRONG_SENDER = \"TM_PROXY_PAYMENT_WRONG_SENDER\";\n\n    struct TokenVesting {\n        uint256 amount;\n        uint64 start;\n        uint64 cliff;\n        uint64 vesting;\n        bool revokable;\n    }\n\n    MiniMeToken public token;\n    uint256 public maxAccountTokens;\n\n    // We are mimicing an array in the inner mapping, we use a mapping instead to make app upgrade more graceful\n    mapping (address => mapping (uint256 => TokenVesting)) internal vestings;\n    mapping (address => uint256) public vestingsLengths;\n    mapping (address => bool) public everHeld;\n\n    // Other token specific events can be watched on the token address directly (avoids duplication)\n    event NewVesting(address indexed receiver, uint256 vestingId, uint256 amount);\n    event RevokeVesting(address indexed receiver, uint256 vestingId, uint256 nonVestedAmount);\n\n    modifier vestingExists(address _holder, uint256 _vestingId) {\n        // TODO: it's not checking for gaps that may appear because of deletes in revokeVesting function\n        require(_vestingId < vestingsLengths[_holder], ERROR_NO_VESTING);\n        _;\n    }\n\n    /**\n    * @notice Initialize Token Manager for `_token.symbol(): string`, whose tokens are `transferable ? 'not' : ''` transferable`_maxAccountTokens > 0 ? ' and limited to a maximum of ' + @tokenAmount(_token, _maxAccountTokens, false) + ' per account' : ''`\n    * @param _token MiniMeToken address for the managed token (Token Manager instance must be already set as the token controller)\n    * @param _transferable whether the token can be transferred by holders\n    * @param _maxAccountTokens Maximum amount of tokens an account can have (0 for infinite tokens)\n    */\n    function initialize(\n        MiniMeToken _token,\n        bool _transferable,\n        uint256 _maxAccountTokens\n    )\n        external\n        onlyInit\n    {\n        initialized();\n\n        require(_token.controller() == address(this), ERROR_TOKEN_CONTROLLER);\n\n        token = _token;\n        maxAccountTokens = _maxAccountTokens == 0 ? uint256(-1) : _maxAccountTokens;\n\n        if (token.transfersEnabled() != _transferable) {\n            token.enableTransfers(_transferable);\n        }\n    }\n\n    /**\n    * @notice Mint `@tokenAmount(self.token(): address, _amount, false)` tokens for `_receiver`\n    * @param _receiver The address receiving the tokens\n    * @param _amount Number of tokens minted\n    */\n    function mint(address _receiver, uint256 _amount) external authP(MINT_ROLE, arr(_receiver, _amount)) {\n        require(_isBalanceIncreaseAllowed(_receiver, _amount), ERROR_MINT_BALANCE_INCREASE_NOT_ALLOWED);\n        _mint(_receiver, _amount);\n    }\n\n    /**\n    * @notice Mint `@tokenAmount(self.token(): address, _amount, false)` tokens for the Token Manager\n    * @param _amount Number of tokens minted\n    */\n    function issue(uint256 _amount) external authP(ISSUE_ROLE, arr(_amount)) {\n        _mint(address(this), _amount);\n    }\n\n    /**\n    * @notice Assign `@tokenAmount(self.token(): address, _amount, false)` tokens to `_receiver` from the Token Manager's holdings\n    * @param _receiver The address receiving the tokens\n    * @param _amount Number of tokens transferred\n    */\n    function assign(address _receiver, uint256 _amount) external authP(ASSIGN_ROLE, arr(_receiver, _amount)) {\n        _assign(_receiver, _amount);\n    }\n\n    /**\n    * @notice Burn `@tokenAmount(self.token(): address, _amount, false)` tokens from `_holder`\n    * @param _holder Holder of tokens being burned\n    * @param _amount Number of tokens being burned\n    */\n    function burn(address _holder, uint256 _amount) external authP(BURN_ROLE, arr(_holder, _amount)) {\n        // minime.destroyTokens() never returns false, only reverts on failure\n        token.destroyTokens(_holder, _amount);\n    }\n\n    /**\n    * @notice Assign `@tokenAmount(self.token(): address, _amount, false)` tokens to `_receiver` from the Token Manager's holdings with a `_revokable : 'revokable' : ''` vesting starting at `@formatDate(_start)`, cliff at `@formatDate(_cliff)` (first portion of tokens transferable), and completed vesting at `@formatDate(_vested)` (all tokens transferable)\n    * @param _receiver The address receiving the tokens\n    * @param _amount Number of tokens vested\n    * @param _start Date the vesting calculations start\n    * @param _cliff Date when the initial portion of tokens are transferable\n    * @param _vested Date when all tokens are transferable\n    * @param _revokable Whether the vesting can be revoked by the Token Manager\n    */\n    function assignVested(\n        address _receiver,\n        uint256 _amount,\n        uint64 _start,\n        uint64 _cliff,\n        uint64 _vested,\n        bool _revokable\n    )\n        external\n        authP(ASSIGN_ROLE, arr(_receiver, _amount))\n        returns (uint256)\n    {\n        require(vestingsLengths[_receiver] < MAX_VESTINGS_PER_ADDRESS, ERROR_TOO_MANY_VESTINGS);\n\n        require(_start <= _cliff && _cliff <= _vested, ERROR_WRONG_CLIFF_DATE);\n\n        uint256 vestingId = vestingsLengths[_receiver]++;\n        vestings[_receiver][vestingId] = TokenVesting(\n            _amount,\n            _start,\n            _cliff,\n            _vested,\n            _revokable\n        );\n\n        _assign(_receiver, _amount);\n\n        emit NewVesting(_receiver, vestingId, _amount);\n\n        return vestingId;\n    }\n\n    /**\n    * @notice Revoke vesting #`_vestingId` from `_holder`, returning unvested tokens to the Token Manager\n    * @param _holder Address whose vesting to revoke\n    * @param _vestingId Numeric id of the vesting\n    */\n    function revokeVesting(address _holder, uint256 _vestingId)\n        external\n        authP(REVOKE_VESTINGS_ROLE, arr(_holder))\n        vestingExists(_holder, _vestingId)\n    {\n        TokenVesting storage v = vestings[_holder][_vestingId];\n        require(v.revokable, ERROR_VESTING_NOT_REVOKABLE);\n\n        uint256 nonVested = _calculateNonVestedTokens(\n            v.amount,\n            getTimestamp64(),\n            v.start,\n            v.cliff,\n            v.vesting\n        );\n\n        // To make vestingIds immutable over time, we just zero out the revoked vesting\n        delete vestings[_holder][_vestingId];\n\n        // transferFrom always works as controller\n        // onTransfer hook always allows if transfering to token controller\n        require(token.transferFrom(_holder, address(this), nonVested), ERROR_REVOKE_TRANSFER_FROM_REVERTED);\n\n        emit RevokeVesting(_holder, _vestingId, nonVested);\n    }\n\n    /**\n    * @notice Execute desired action as a token holder\n    * @dev IForwarder interface conformance. Forwards any token holder action.\n    * @param _evmScript Script being executed\n    */\n    function forward(bytes _evmScript) public {\n        require(canForward(msg.sender, _evmScript), ERROR_CAN_NOT_FORWARD);\n        bytes memory input = new bytes(0); // TODO: Consider input for this\n\n        // Add the managed token to the blacklist to disallow a token holder from executing actions\n        // on the token controller's (this contract) behalf\n        address[] memory blacklist = new address[](1);\n        blacklist[0] = address(token);\n\n        runScript(_evmScript, input, blacklist);\n    }\n\n    function isForwarder() public pure returns (bool) {\n        return true;\n    }\n\n    function canForward(address _sender, bytes) public view returns (bool) {\n        return hasInitialized() && token.balanceOf(_sender) > 0;\n    }\n\n    function getVesting(\n        address _recipient,\n        uint256 _vestingId\n    )\n        public\n        view\n        vestingExists(_recipient, _vestingId)\n        returns (\n            uint256 amount,\n            uint64 start,\n            uint64 cliff,\n            uint64 vesting,\n            bool revokable\n        )\n    {\n        TokenVesting storage tokenVesting = vestings[_recipient][_vestingId];\n        amount = tokenVesting.amount;\n        start = tokenVesting.start;\n        cliff = tokenVesting.cliff;\n        vesting = tokenVesting.vesting;\n        revokable = tokenVesting.revokable;\n    }\n\n    /*\n    * @dev Notifies the controller about a token transfer allowing the controller to decide whether to allow it or react if desired (only callable from the token)\n    * @param _from The origin of the transfer\n    * @param _to The destination of the transfer\n    * @param _amount The amount of the transfer\n    * @return False if the controller does not authorize the transfer\n    */\n    function onTransfer(address _from, address _to, uint _amount) public isInitialized returns (bool) {\n        require(msg.sender == address(token), ERROR_ON_TRANSFER_WRONG_SENDER);\n\n        bool includesTokenManager = _from == address(this) || _to == address(this);\n\n        if (!includesTokenManager) {\n            bool toCanReceive = _isBalanceIncreaseAllowed(_to, _amount);\n            if (!toCanReceive || transferableBalance(_from, now) < _amount) {\n                return false;\n            }\n        }\n\n        return true;\n    }\n\n    /**\n    * @notice Called when ether is sent to the MiniMe Token contract\n    * @return True if the ether is accepted, false for it to throw\n    */\n    function proxyPayment(address) public payable returns (bool) {\n        // Sender check is required to avoid anyone sending ETH to the Token Manager through this method\n        // Even though it is tested, solidity-coverage doesnt get it because\n        // MiniMeToken is not instrumented and entire tx is reverted\n        require(msg.sender == address(token), ERROR_PROXY_PAYMENT_WRONG_SENDER);\n        return false;\n    }\n\n    /**\n    * @dev Notifies the controller about an approval allowing the controller to react if desired\n    * @return False if the controller does not authorize the approval\n    */\n    function onApprove(address, address, uint) public returns (bool) {\n        return true;\n    }\n\n    function _isBalanceIncreaseAllowed(address _receiver, uint _inc) internal view returns (bool) {\n        return token.balanceOf(_receiver).add(_inc) <= maxAccountTokens;\n    }\n\n    function spendableBalanceOf(address _holder) public view returns (uint256) {\n        return transferableBalance(_holder, now);\n    }\n\n    function transferableBalance(address _holder, uint256 _time) public view returns (uint256) {\n        uint256 vestingsCount = vestingsLengths[_holder];\n        uint256 totalNonTransferable = 0;\n\n        for (uint256 i = 0; i < vestingsCount; i++) {\n            TokenVesting storage v = vestings[_holder][i];\n            uint nonTransferable = _calculateNonVestedTokens(\n                v.amount,\n                _time.toUint64(),\n                v.start,\n                v.cliff,\n                v.vesting\n            );\n            totalNonTransferable = totalNonTransferable.add(nonTransferable);\n        }\n\n        return token.balanceOf(_holder).sub(totalNonTransferable);\n    }\n\n    /**\n    * @dev Disable recovery escape hatch for own token,\n    *      as the it has the concept of issuing tokens without assigning them\n    */\n    function allowRecoverability(address _token) public view returns (bool) {\n        return _token != address(token);\n    }\n\n    /**\n    * @dev Calculate amount of non-vested tokens at a specifc time\n    * @param tokens The total amount of tokens vested\n    * @param time The time at which to check\n    * @param start The date vesting started\n    * @param cliff The cliff period\n    * @param vested The fully vested date\n    * @return The amount of non-vested tokens of a specific grant\n    *  transferableTokens\n    *   |                         _/--------   vestedTokens rect\n    *   |                       _/\n    *   |                     _/\n    *   |                   _/\n    *   |                 _/\n    *   |                /\n    *   |              .|\n    *   |            .  |\n    *   |          .    |\n    *   |        .      |\n    *   |      .        |\n    *   |    .          |\n    *   +===+===========+---------+----------> time\n    *      Start       Cliff    Vested\n    */\n    function _calculateNonVestedTokens(\n        uint256 tokens,\n        uint256 time,\n        uint256 start,\n        uint256 cliff,\n        uint256 vested\n    )\n        private\n        pure\n        returns (uint256)\n    {\n        // Shortcuts for before cliff and after vested cases.\n        if (time >= vested) {\n            return 0;\n        }\n        if (time < cliff) {\n            return tokens;\n        }\n\n        // Interpolate all vested tokens.\n        // As before cliff the shortcut returns 0, we can just calculate a value\n        // in the vesting rect (as shown in above's figure)\n\n        // vestedTokens = tokens * (time - start) / (vested - start)\n        // In assignVesting we enforce start <= cliff <= vested\n        // Here we shortcut time >= vested and time < cliff,\n        // so no division by 0 is possible\n        uint256 vestedTokens = tokens.mul(time.sub(start)) / vested.sub(start);\n\n        // tokens - vestedTokens\n        return tokens.sub(vestedTokens);\n    }\n\n    function _assign(address _receiver, uint256 _amount) internal {\n        require(_isBalanceIncreaseAllowed(_receiver, _amount), ERROR_ASSIGN_BALANCE_INCREASE_NOT_ALLOWED);\n        // Must use transferFrom() as transfer() does not give the token controller full control\n        require(token.transferFrom(this, _receiver, _amount), ERROR_ASSIGN_TRANSFER_FROM_REVERTED);\n    }\n\n    function _mint(address _receiver, uint256 _amount) internal {\n        token.generateTokens(_receiver, _amount); // minime.generateTokens() never returns false\n    }\n}\n",
  "sourcePath": "/Users/davidkajpust/coding-no-icloud-backup/thegraph/Aragon/aragon-apps/apps/token-manager/contracts/TokenManager.sol",
  "compiler": {
    "name": "solc",
    "version": "0.4.24+commit.e67f0147.Emscripten.clang"
  },
  "schemaVersion": "3.0.0-beta.0",
  "updatedAt": "2018-11-10T23:36:43.659Z"
}